{
	"contracts/ERC20.sol": {
		"ERC20": {
			"abi": [
				{
					"inputs": [
						{
							"internalType": "string",
							"name": "name_",
							"type": "string"
						},
						{
							"internalType": "string",
							"name": "symbol_",
							"type": "string"
						},
						{
							"internalType": "uint256",
							"name": "totalSupply_",
							"type": "uint256"
						},
						{
							"internalType": "uint8",
							"name": "decimals_",
							"type": "uint8"
						}
					],
					"stateMutability": "nonpayable",
					"type": "constructor"
				},
				{
					"anonymous": false,
					"inputs": [
						{
							"indexed": true,
							"internalType": "address",
							"name": "owner",
							"type": "address"
						},
						{
							"indexed": true,
							"internalType": "address",
							"name": "spender",
							"type": "address"
						},
						{
							"indexed": false,
							"internalType": "uint256",
							"name": "value",
							"type": "uint256"
						}
					],
					"name": "Approval",
					"type": "event"
				},
				{
					"anonymous": false,
					"inputs": [
						{
							"indexed": true,
							"internalType": "address",
							"name": "from",
							"type": "address"
						},
						{
							"indexed": true,
							"internalType": "address",
							"name": "to",
							"type": "address"
						},
						{
							"indexed": false,
							"internalType": "uint256",
							"name": "value",
							"type": "uint256"
						}
					],
					"name": "Transfer",
					"type": "event"
				},
				{
					"inputs": [],
					"name": "_decimals",
					"outputs": [
						{
							"internalType": "uint8",
							"name": "",
							"type": "uint8"
						}
					],
					"stateMutability": "view",
					"type": "function"
				},
				{
					"inputs": [
						{
							"internalType": "address",
							"name": "owner",
							"type": "address"
						},
						{
							"internalType": "address",
							"name": "spender",
							"type": "address"
						}
					],
					"name": "allowance",
					"outputs": [
						{
							"internalType": "uint256",
							"name": "",
							"type": "uint256"
						}
					],
					"stateMutability": "view",
					"type": "function"
				},
				{
					"inputs": [
						{
							"internalType": "address",
							"name": "spender",
							"type": "address"
						},
						{
							"internalType": "uint256",
							"name": "amount",
							"type": "uint256"
						}
					],
					"name": "approve",
					"outputs": [
						{
							"internalType": "bool",
							"name": "",
							"type": "bool"
						}
					],
					"stateMutability": "nonpayable",
					"type": "function"
				},
				{
					"inputs": [
						{
							"internalType": "address",
							"name": "account",
							"type": "address"
						}
					],
					"name": "balanceOf",
					"outputs": [
						{
							"internalType": "uint256",
							"name": "",
							"type": "uint256"
						}
					],
					"stateMutability": "view",
					"type": "function"
				},
				{
					"inputs": [
						{
							"internalType": "uint256",
							"name": "amount",
							"type": "uint256"
						}
					],
					"name": "burn",
					"outputs": [],
					"stateMutability": "nonpayable",
					"type": "function"
				},
				{
					"inputs": [
						{
							"internalType": "uint256",
							"name": "amount",
							"type": "uint256"
						}
					],
					"name": "mint",
					"outputs": [],
					"stateMutability": "nonpayable",
					"type": "function"
				},
				{
					"inputs": [],
					"name": "totalSupply",
					"outputs": [
						{
							"internalType": "uint256",
							"name": "",
							"type": "uint256"
						}
					],
					"stateMutability": "view",
					"type": "function"
				},
				{
					"inputs": [
						{
							"internalType": "address",
							"name": "recipient",
							"type": "address"
						},
						{
							"internalType": "uint256",
							"name": "amount",
							"type": "uint256"
						}
					],
					"name": "transfer",
					"outputs": [
						{
							"internalType": "bool",
							"name": "",
							"type": "bool"
						}
					],
					"stateMutability": "nonpayable",
					"type": "function"
				},
				{
					"inputs": [
						{
							"internalType": "address",
							"name": "sender",
							"type": "address"
						},
						{
							"internalType": "address",
							"name": "recipient",
							"type": "address"
						},
						{
							"internalType": "uint256",
							"name": "amount",
							"type": "uint256"
						}
					],
					"name": "transferFrom",
					"outputs": [
						{
							"internalType": "bool",
							"name": "",
							"type": "bool"
						}
					],
					"stateMutability": "nonpayable",
					"type": "function"
				}
			],
			"devdoc": {
				"kind": "dev",
				"methods": {
					"allowance(address,address)": {
						"details": "返回`owner`账户授权给`spender`账户的额度，默认为0。 当{approve} 或 {transferFrom} 被调用时，`allowance`会改变."
					},
					"approve(address,uint256)": {
						"details": "代币授权逻辑。被授权方spender可以支配授权方的amount数量的代币 spender可以是EOA账户，也可以是合约账户"
					},
					"balanceOf(address)": {
						"details": "返回账户`account`所持有的代币数."
					},
					"burn(uint256)": {
						"details": "销毁代币函数，不在IERC20标准中。"
					},
					"constructor": {
						"details": "构造函数，初始化代币名称、代号、总供给、小数位数"
					},
					"mint(uint256)": {
						"details": "铸造代币函数，不在IERC20标准中。"
					},
					"totalSupply()": {
						"details": "返回代币总供给"
					},
					"transfer(address,uint256)": {
						"details": "代币转账逻辑。调用方扣除amount数量代币，接收方增加相应代币 "
					},
					"transferFrom(address,address,uint256)": {
						"details": "授权转账逻辑，被授权方将授权方sender的amount数量的代币转账给接收方recipient "
					}
				},
				"version": 1
			},
			"evm": {
				"assembly": "    /* \"contracts/ERC20.sol\":82:3171  contract ERC20 is IERC20 {... */\n  mstore(0x40, 0x80)\n    /* \"contracts/ERC20.sol\":510:730  constructor(string memory name_, string memory symbol_, uint256 totalSupply_, uint8 decimals_) {... */\n  callvalue\n  dup1\n  iszero\n  tag_1\n  jumpi\n  0x00\n  dup1\n  revert\ntag_1:\n  pop\n  mload(0x40)\n  sub(codesize, bytecodeSize)\n  dup1\n  bytecodeSize\n  dup4\n  codecopy\n  dup2\n  dup2\n  add\n  0x40\n  mstore\n  dup2\n  add\n  swap1\n  tag_2\n  swap2\n  swap1\n  tag_3\n  jump\t// in\ntag_2:\n    /* \"contracts/ERC20.sol\":623:628  name_ */\n  dup4\n    /* \"contracts/ERC20.sol\":615:620  _name */\n  0x02\n    /* \"contracts/ERC20.sol\":615:628  _name = name_ */\n  swap1\n  dup1\n  mload\n  swap1\n  0x20\n  add\n  swap1\n  tag_6\n  swap3\n  swap2\n  swap1\n  tag_7\n  jump\t// in\ntag_6:\n  pop\n    /* \"contracts/ERC20.sol\":648:655  symbol_ */\n  dup3\n    /* \"contracts/ERC20.sol\":638:645  _symbol */\n  0x03\n    /* \"contracts/ERC20.sol\":638:655  _symbol = symbol_ */\n  swap1\n  dup1\n  mload\n  swap1\n  0x20\n  add\n  swap1\n  tag_8\n  swap3\n  swap2\n  swap1\n  tag_7\n  jump\t// in\ntag_8:\n  pop\n    /* \"contracts/ERC20.sol\":680:692  totalSupply_ */\n  dup2\n    /* \"contracts/ERC20.sol\":665:677  _totalSupply */\n  0x04\n    /* \"contracts/ERC20.sol\":665:692  _totalSupply = totalSupply_ */\n  dup2\n  swap1\n  sstore\n  pop\n    /* \"contracts/ERC20.sol\":714:723  decimals_ */\n  dup1\n    /* \"contracts/ERC20.sol\":702:711  _decimals */\n  0x05\n  0x00\n    /* \"contracts/ERC20.sol\":702:723  _decimals = decimals_ */\n  0x0100\n  exp\n  dup2\n  sload\n  dup2\n  0xff\n  mul\n  not\n  and\n  swap1\n  dup4\n  0xff\n  and\n  mul\n  or\n  swap1\n  sstore\n  pop\n    /* \"contracts/ERC20.sol\":510:730  constructor(string memory name_, string memory symbol_, uint256 totalSupply_, uint8 decimals_) {... */\n  pop\n  pop\n  pop\n  pop\n    /* \"contracts/ERC20.sol\":82:3171  contract ERC20 is IERC20 {... */\n  jump(tag_9)\ntag_7:\n  dup3\n  dup1\n  sload\n  tag_10\n  swap1\n  tag_11\n  jump\t// in\ntag_10:\n  swap1\n  0x00\n  mstore\n  keccak256(0x00, 0x20)\n  swap1\n  0x1f\n  add\n  0x20\n  swap1\n  div\n  dup2\n  add\n  swap3\n  dup3\n  tag_13\n  jumpi\n  0x00\n  dup6\n  sstore\n  jump(tag_12)\ntag_13:\n  dup3\n  0x1f\n  lt\n  tag_14\n  jumpi\n  dup1\n  mload\n  not(0xff)\n  and\n  dup4\n  dup1\n  add\n  or\n  dup6\n  sstore\n  jump(tag_12)\ntag_14:\n  dup3\n  dup1\n  add\n  0x01\n  add\n  dup6\n  sstore\n  dup3\n  iszero\n  tag_12\n  jumpi\n  swap2\n  dup3\n  add\ntag_15:\n  dup3\n  dup2\n  gt\n  iszero\n  tag_16\n  jumpi\n  dup3\n  mload\n  dup3\n  sstore\n  swap2\n  0x20\n  add\n  swap2\n  swap1\n  0x01\n  add\n  swap1\n  jump(tag_15)\ntag_16:\ntag_12:\n  pop\n  swap1\n  pop\n  tag_17\n  swap2\n  swap1\n  tag_18\n  jump\t// in\ntag_17:\n  pop\n  swap1\n  jump\t// out\ntag_18:\ntag_19:\n  dup1\n  dup3\n  gt\n  iszero\n  tag_20\n  jumpi\n  0x00\n  dup2\n  0x00\n  swap1\n  sstore\n  pop\n  0x01\n  add\n  jump(tag_19)\ntag_20:\n  pop\n  swap1\n  jump\t// out\n    /* \"#utility.yul\":7:428   */\ntag_22:\n    /* \"#utility.yul\":96:101   */\n  0x00\n    /* \"#utility.yul\":121:187   */\n  tag_24\n    /* \"#utility.yul\":137:186   */\n  tag_25\n    /* \"#utility.yul\":179:185   */\n  dup5\n    /* \"#utility.yul\":137:186   */\n  tag_26\n  jump\t// in\ntag_25:\n    /* \"#utility.yul\":121:187   */\n  tag_27\n  jump\t// in\ntag_24:\n    /* \"#utility.yul\":112:187   */\n  swap1\n  pop\n    /* \"#utility.yul\":210:216   */\n  dup3\n    /* \"#utility.yul\":203:208   */\n  dup2\n    /* \"#utility.yul\":196:217   */\n  mstore\n    /* \"#utility.yul\":248:252   */\n  0x20\n    /* \"#utility.yul\":241:246   */\n  dup2\n    /* \"#utility.yul\":237:253   */\n  add\n    /* \"#utility.yul\":286:289   */\n  dup5\n    /* \"#utility.yul\":277:283   */\n  dup5\n    /* \"#utility.yul\":272:275   */\n  dup5\n    /* \"#utility.yul\":268:284   */\n  add\n    /* \"#utility.yul\":265:290   */\n  gt\n    /* \"#utility.yul\":262:374   */\n  iszero\n  tag_28\n  jumpi\n    /* \"#utility.yul\":293:372   */\n  tag_29\n  tag_30\n  jump\t// in\ntag_29:\n    /* \"#utility.yul\":262:374   */\ntag_28:\n    /* \"#utility.yul\":383:422   */\n  tag_31\n    /* \"#utility.yul\":415:421   */\n  dup5\n    /* \"#utility.yul\":410:413   */\n  dup3\n    /* \"#utility.yul\":405:408   */\n  dup6\n    /* \"#utility.yul\":383:422   */\n  tag_32\n  jump\t// in\ntag_31:\n    /* \"#utility.yul\":102:428   */\n  pop\n    /* \"#utility.yul\":7:428   */\n  swap4\n  swap3\n  pop\n  pop\n  pop\n  jump\t// out\n    /* \"#utility.yul\":448:803   */\ntag_33:\n    /* \"#utility.yul\":515:520   */\n  0x00\n    /* \"#utility.yul\":564:567   */\n  dup3\n    /* \"#utility.yul\":557:561   */\n  0x1f\n    /* \"#utility.yul\":549:555   */\n  dup4\n    /* \"#utility.yul\":545:562   */\n  add\n    /* \"#utility.yul\":541:568   */\n  slt\n    /* \"#utility.yul\":531:653   */\n  tag_35\n  jumpi\n    /* \"#utility.yul\":572:651   */\n  tag_36\n  tag_37\n  jump\t// in\ntag_36:\n    /* \"#utility.yul\":531:653   */\ntag_35:\n    /* \"#utility.yul\":682:688   */\n  dup2\n    /* \"#utility.yul\":676:689   */\n  mload\n    /* \"#utility.yul\":707:797   */\n  tag_38\n    /* \"#utility.yul\":793:796   */\n  dup5\n    /* \"#utility.yul\":785:791   */\n  dup3\n    /* \"#utility.yul\":778:782   */\n  0x20\n    /* \"#utility.yul\":770:776   */\n  dup7\n    /* \"#utility.yul\":766:783   */\n  add\n    /* \"#utility.yul\":707:797   */\n  tag_22\n  jump\t// in\ntag_38:\n    /* \"#utility.yul\":698:797   */\n  swap2\n  pop\n    /* \"#utility.yul\":521:803   */\n  pop\n    /* \"#utility.yul\":448:803   */\n  swap3\n  swap2\n  pop\n  pop\n  jump\t// out\n    /* \"#utility.yul\":809:952   */\ntag_39:\n    /* \"#utility.yul\":866:871   */\n  0x00\n    /* \"#utility.yul\":897:903   */\n  dup2\n    /* \"#utility.yul\":891:904   */\n  mload\n    /* \"#utility.yul\":882:904   */\n  swap1\n  pop\n    /* \"#utility.yul\":913:946   */\n  tag_41\n    /* \"#utility.yul\":940:945   */\n  dup2\n    /* \"#utility.yul\":913:946   */\n  tag_42\n  jump\t// in\ntag_41:\n    /* \"#utility.yul\":809:952   */\n  swap3\n  swap2\n  pop\n  pop\n  jump\t// out\n    /* \"#utility.yul\":958:1097   */\ntag_43:\n    /* \"#utility.yul\":1013:1018   */\n  0x00\n    /* \"#utility.yul\":1044:1050   */\n  dup2\n    /* \"#utility.yul\":1038:1051   */\n  mload\n    /* \"#utility.yul\":1029:1051   */\n  swap1\n  pop\n    /* \"#utility.yul\":1060:1091   */\n  tag_45\n    /* \"#utility.yul\":1085:1090   */\n  dup2\n    /* \"#utility.yul\":1060:1091   */\n  tag_46\n  jump\t// in\ntag_45:\n    /* \"#utility.yul\":958:1097   */\n  swap3\n  swap2\n  pop\n  pop\n  jump\t// out\n    /* \"#utility.yul\":1103:2265   */\ntag_3:\n    /* \"#utility.yul\":1218:1224   */\n  0x00\n    /* \"#utility.yul\":1226:1232   */\n  dup1\n    /* \"#utility.yul\":1234:1240   */\n  0x00\n    /* \"#utility.yul\":1242:1248   */\n  dup1\n    /* \"#utility.yul\":1291:1294   */\n  0x80\n    /* \"#utility.yul\":1279:1288   */\n  dup6\n    /* \"#utility.yul\":1270:1277   */\n  dup8\n    /* \"#utility.yul\":1266:1289   */\n  sub\n    /* \"#utility.yul\":1262:1295   */\n  slt\n    /* \"#utility.yul\":1259:1379   */\n  iszero\n  tag_48\n  jumpi\n    /* \"#utility.yul\":1298:1377   */\n  tag_49\n  tag_50\n  jump\t// in\ntag_49:\n    /* \"#utility.yul\":1259:1379   */\ntag_48:\n    /* \"#utility.yul\":1439:1440   */\n  0x00\n    /* \"#utility.yul\":1428:1437   */\n  dup6\n    /* \"#utility.yul\":1424:1441   */\n  add\n    /* \"#utility.yul\":1418:1442   */\n  mload\n    /* \"#utility.yul\":1469:1487   */\n  0xffffffffffffffff\n    /* \"#utility.yul\":1461:1467   */\n  dup2\n    /* \"#utility.yul\":1458:1488   */\n  gt\n    /* \"#utility.yul\":1455:1572   */\n  iszero\n  tag_51\n  jumpi\n    /* \"#utility.yul\":1491:1570   */\n  tag_52\n  tag_53\n  jump\t// in\ntag_52:\n    /* \"#utility.yul\":1455:1572   */\ntag_51:\n    /* \"#utility.yul\":1596:1670   */\n  tag_54\n    /* \"#utility.yul\":1662:1669   */\n  dup8\n    /* \"#utility.yul\":1653:1659   */\n  dup3\n    /* \"#utility.yul\":1642:1651   */\n  dup9\n    /* \"#utility.yul\":1638:1660   */\n  add\n    /* \"#utility.yul\":1596:1670   */\n  tag_33\n  jump\t// in\ntag_54:\n    /* \"#utility.yul\":1586:1670   */\n  swap5\n  pop\n    /* \"#utility.yul\":1389:1680   */\n  pop\n    /* \"#utility.yul\":1740:1742   */\n  0x20\n    /* \"#utility.yul\":1729:1738   */\n  dup6\n    /* \"#utility.yul\":1725:1743   */\n  add\n    /* \"#utility.yul\":1719:1744   */\n  mload\n    /* \"#utility.yul\":1771:1789   */\n  0xffffffffffffffff\n    /* \"#utility.yul\":1763:1769   */\n  dup2\n    /* \"#utility.yul\":1760:1790   */\n  gt\n    /* \"#utility.yul\":1757:1874   */\n  iszero\n  tag_55\n  jumpi\n    /* \"#utility.yul\":1793:1872   */\n  tag_56\n  tag_53\n  jump\t// in\ntag_56:\n    /* \"#utility.yul\":1757:1874   */\ntag_55:\n    /* \"#utility.yul\":1898:1972   */\n  tag_57\n    /* \"#utility.yul\":1964:1971   */\n  dup8\n    /* \"#utility.yul\":1955:1961   */\n  dup3\n    /* \"#utility.yul\":1944:1953   */\n  dup9\n    /* \"#utility.yul\":1940:1962   */\n  add\n    /* \"#utility.yul\":1898:1972   */\n  tag_33\n  jump\t// in\ntag_57:\n    /* \"#utility.yul\":1888:1972   */\n  swap4\n  pop\n    /* \"#utility.yul\":1690:1982   */\n  pop\n    /* \"#utility.yul\":2021:2023   */\n  0x40\n    /* \"#utility.yul\":2047:2111   */\n  tag_58\n    /* \"#utility.yul\":2103:2110   */\n  dup8\n    /* \"#utility.yul\":2094:2100   */\n  dup3\n    /* \"#utility.yul\":2083:2092   */\n  dup9\n    /* \"#utility.yul\":2079:2101   */\n  add\n    /* \"#utility.yul\":2047:2111   */\n  tag_39\n  jump\t// in\ntag_58:\n    /* \"#utility.yul\":2037:2111   */\n  swap3\n  pop\n    /* \"#utility.yul\":1992:2121   */\n  pop\n    /* \"#utility.yul\":2160:2162   */\n  0x60\n    /* \"#utility.yul\":2186:2248   */\n  tag_59\n    /* \"#utility.yul\":2240:2247   */\n  dup8\n    /* \"#utility.yul\":2231:2237   */\n  dup3\n    /* \"#utility.yul\":2220:2229   */\n  dup9\n    /* \"#utility.yul\":2216:2238   */\n  add\n    /* \"#utility.yul\":2186:2248   */\n  tag_43\n  jump\t// in\ntag_59:\n    /* \"#utility.yul\":2176:2248   */\n  swap2\n  pop\n    /* \"#utility.yul\":2131:2258   */\n  pop\n    /* \"#utility.yul\":1103:2265   */\n  swap3\n  swap6\n  swap2\n  swap5\n  pop\n  swap3\n  pop\n  jump\t// out\n    /* \"#utility.yul\":2271:2400   */\ntag_27:\n    /* \"#utility.yul\":2305:2311   */\n  0x00\n    /* \"#utility.yul\":2332:2352   */\n  tag_61\n  tag_62\n  jump\t// in\ntag_61:\n    /* \"#utility.yul\":2322:2352   */\n  swap1\n  pop\n    /* \"#utility.yul\":2361:2394   */\n  tag_63\n    /* \"#utility.yul\":2389:2393   */\n  dup3\n    /* \"#utility.yul\":2381:2387   */\n  dup3\n    /* \"#utility.yul\":2361:2394   */\n  tag_64\n  jump\t// in\ntag_63:\n    /* \"#utility.yul\":2271:2400   */\n  swap2\n  swap1\n  pop\n  jump\t// out\n    /* \"#utility.yul\":2406:2481   */\ntag_62:\n    /* \"#utility.yul\":2439:2445   */\n  0x00\n    /* \"#utility.yul\":2472:2474   */\n  0x40\n    /* \"#utility.yul\":2466:2475   */\n  mload\n    /* \"#utility.yul\":2456:2475   */\n  swap1\n  pop\n    /* \"#utility.yul\":2406:2481   */\n  swap1\n  jump\t// out\n    /* \"#utility.yul\":2487:2795   */\ntag_26:\n    /* \"#utility.yul\":2549:2553   */\n  0x00\n    /* \"#utility.yul\":2639:2657   */\n  0xffffffffffffffff\n    /* \"#utility.yul\":2631:2637   */\n  dup3\n    /* \"#utility.yul\":2628:2658   */\n  gt\n    /* \"#utility.yul\":2625:2681   */\n  iszero\n  tag_67\n  jumpi\n    /* \"#utility.yul\":2661:2679   */\n  tag_68\n  tag_69\n  jump\t// in\ntag_68:\n    /* \"#utility.yul\":2625:2681   */\ntag_67:\n    /* \"#utility.yul\":2699:2728   */\n  tag_70\n    /* \"#utility.yul\":2721:2727   */\n  dup3\n    /* \"#utility.yul\":2699:2728   */\n  tag_71\n  jump\t// in\ntag_70:\n    /* \"#utility.yul\":2691:2728   */\n  swap1\n  pop\n    /* \"#utility.yul\":2783:2787   */\n  0x20\n    /* \"#utility.yul\":2777:2781   */\n  dup2\n    /* \"#utility.yul\":2773:2788   */\n  add\n    /* \"#utility.yul\":2765:2788   */\n  swap1\n  pop\n    /* \"#utility.yul\":2487:2795   */\n  swap2\n  swap1\n  pop\n  jump\t// out\n    /* \"#utility.yul\":2801:2878   */\ntag_72:\n    /* \"#utility.yul\":2838:2845   */\n  0x00\n    /* \"#utility.yul\":2867:2872   */\n  dup2\n    /* \"#utility.yul\":2856:2872   */\n  swap1\n  pop\n    /* \"#utility.yul\":2801:2878   */\n  swap2\n  swap1\n  pop\n  jump\t// out\n    /* \"#utility.yul\":2884:2970   */\ntag_74:\n    /* \"#utility.yul\":2919:2926   */\n  0x00\n    /* \"#utility.yul\":2959:2963   */\n  0xff\n    /* \"#utility.yul\":2952:2957   */\n  dup3\n    /* \"#utility.yul\":2948:2964   */\n  and\n    /* \"#utility.yul\":2937:2964   */\n  swap1\n  pop\n    /* \"#utility.yul\":2884:2970   */\n  swap2\n  swap1\n  pop\n  jump\t// out\n    /* \"#utility.yul\":2976:3283   */\ntag_32:\n    /* \"#utility.yul\":3044:3045   */\n  0x00\n    /* \"#utility.yul\":3054:3167   */\ntag_77:\n    /* \"#utility.yul\":3068:3074   */\n  dup4\n    /* \"#utility.yul\":3065:3066   */\n  dup2\n    /* \"#utility.yul\":3062:3075   */\n  lt\n    /* \"#utility.yul\":3054:3167   */\n  iszero\n  tag_79\n  jumpi\n    /* \"#utility.yul\":3153:3154   */\n  dup1\n    /* \"#utility.yul\":3148:3151   */\n  dup3\n    /* \"#utility.yul\":3144:3155   */\n  add\n    /* \"#utility.yul\":3138:3156   */\n  mload\n    /* \"#utility.yul\":3134:3135   */\n  dup2\n    /* \"#utility.yul\":3129:3132   */\n  dup5\n    /* \"#utility.yul\":3125:3136   */\n  add\n    /* \"#utility.yul\":3118:3157   */\n  mstore\n    /* \"#utility.yul\":3090:3092   */\n  0x20\n    /* \"#utility.yul\":3087:3088   */\n  dup2\n    /* \"#utility.yul\":3083:3093   */\n  add\n    /* \"#utility.yul\":3078:3093   */\n  swap1\n  pop\n    /* \"#utility.yul\":3054:3167   */\n  jump(tag_77)\ntag_79:\n    /* \"#utility.yul\":3185:3191   */\n  dup4\n    /* \"#utility.yul\":3182:3183   */\n  dup2\n    /* \"#utility.yul\":3179:3192   */\n  gt\n    /* \"#utility.yul\":3176:3277   */\n  iszero\n  tag_80\n  jumpi\n    /* \"#utility.yul\":3265:3266   */\n  0x00\n    /* \"#utility.yul\":3256:3262   */\n  dup5\n    /* \"#utility.yul\":3251:3254   */\n  dup5\n    /* \"#utility.yul\":3247:3263   */\n  add\n    /* \"#utility.yul\":3240:3267   */\n  mstore\n    /* \"#utility.yul\":3176:3277   */\ntag_80:\n    /* \"#utility.yul\":3025:3283   */\n  pop\n    /* \"#utility.yul\":2976:3283   */\n  pop\n  pop\n  pop\n  jump\t// out\n    /* \"#utility.yul\":3289:3609   */\ntag_11:\n    /* \"#utility.yul\":3333:3339   */\n  0x00\n    /* \"#utility.yul\":3370:3371   */\n  0x02\n    /* \"#utility.yul\":3364:3368   */\n  dup3\n    /* \"#utility.yul\":3360:3372   */\n  div\n    /* \"#utility.yul\":3350:3372   */\n  swap1\n  pop\n    /* \"#utility.yul\":3417:3418   */\n  0x01\n    /* \"#utility.yul\":3411:3415   */\n  dup3\n    /* \"#utility.yul\":3407:3419   */\n  and\n    /* \"#utility.yul\":3438:3456   */\n  dup1\n    /* \"#utility.yul\":3428:3509   */\n  tag_82\n  jumpi\n    /* \"#utility.yul\":3494:3498   */\n  0x7f\n    /* \"#utility.yul\":3486:3492   */\n  dup3\n    /* \"#utility.yul\":3482:3499   */\n  and\n    /* \"#utility.yul\":3472:3499   */\n  swap2\n  pop\n    /* \"#utility.yul\":3428:3509   */\ntag_82:\n    /* \"#utility.yul\":3556:3558   */\n  0x20\n    /* \"#utility.yul\":3548:3554   */\n  dup3\n    /* \"#utility.yul\":3545:3559   */\n  lt\n    /* \"#utility.yul\":3525:3543   */\n  dup2\n    /* \"#utility.yul\":3522:3560   */\n  eq\n    /* \"#utility.yul\":3519:3603   */\n  iszero\n  tag_83\n  jumpi\n    /* \"#utility.yul\":3575:3593   */\n  tag_84\n  tag_85\n  jump\t// in\ntag_84:\n    /* \"#utility.yul\":3519:3603   */\ntag_83:\n    /* \"#utility.yul\":3340:3609   */\n  pop\n    /* \"#utility.yul\":3289:3609   */\n  swap2\n  swap1\n  pop\n  jump\t// out\n    /* \"#utility.yul\":3615:3896   */\ntag_64:\n    /* \"#utility.yul\":3698:3725   */\n  tag_87\n    /* \"#utility.yul\":3720:3724   */\n  dup3\n    /* \"#utility.yul\":3698:3725   */\n  tag_71\n  jump\t// in\ntag_87:\n    /* \"#utility.yul\":3690:3696   */\n  dup2\n    /* \"#utility.yul\":3686:3726   */\n  add\n    /* \"#utility.yul\":3828:3834   */\n  dup2\n    /* \"#utility.yul\":3816:3826   */\n  dup2\n    /* \"#utility.yul\":3813:3835   */\n  lt\n    /* \"#utility.yul\":3792:3810   */\n  0xffffffffffffffff\n    /* \"#utility.yul\":3780:3790   */\n  dup3\n    /* \"#utility.yul\":3777:3811   */\n  gt\n    /* \"#utility.yul\":3774:3836   */\n  or\n    /* \"#utility.yul\":3771:3859   */\n  iszero\n  tag_88\n  jumpi\n    /* \"#utility.yul\":3839:3857   */\n  tag_89\n  tag_69\n  jump\t// in\ntag_89:\n    /* \"#utility.yul\":3771:3859   */\ntag_88:\n    /* \"#utility.yul\":3879:3889   */\n  dup1\n    /* \"#utility.yul\":3875:3877   */\n  0x40\n    /* \"#utility.yul\":3868:3890   */\n  mstore\n    /* \"#utility.yul\":3658:3896   */\n  pop\n    /* \"#utility.yul\":3615:3896   */\n  pop\n  pop\n  jump\t// out\n    /* \"#utility.yul\":3902:4082   */\ntag_85:\n    /* \"#utility.yul\":3950:4027   */\n  0x4e487b7100000000000000000000000000000000000000000000000000000000\n    /* \"#utility.yul\":3947:3948   */\n  0x00\n    /* \"#utility.yul\":3940:4028   */\n  mstore\n    /* \"#utility.yul\":4047:4051   */\n  0x22\n    /* \"#utility.yul\":4044:4045   */\n  0x04\n    /* \"#utility.yul\":4037:4052   */\n  mstore\n    /* \"#utility.yul\":4071:4075   */\n  0x24\n    /* \"#utility.yul\":4068:4069   */\n  0x00\n    /* \"#utility.yul\":4061:4076   */\n  revert\n    /* \"#utility.yul\":4088:4268   */\ntag_69:\n    /* \"#utility.yul\":4136:4213   */\n  0x4e487b7100000000000000000000000000000000000000000000000000000000\n    /* \"#utility.yul\":4133:4134   */\n  0x00\n    /* \"#utility.yul\":4126:4214   */\n  mstore\n    /* \"#utility.yul\":4233:4237   */\n  0x41\n    /* \"#utility.yul\":4230:4231   */\n  0x04\n    /* \"#utility.yul\":4223:4238   */\n  mstore\n    /* \"#utility.yul\":4257:4261   */\n  0x24\n    /* \"#utility.yul\":4254:4255   */\n  0x00\n    /* \"#utility.yul\":4247:4262   */\n  revert\n    /* \"#utility.yul\":4274:4391   */\ntag_37:\n    /* \"#utility.yul\":4383:4384   */\n  0x00\n    /* \"#utility.yul\":4380:4381   */\n  dup1\n    /* \"#utility.yul\":4373:4385   */\n  revert\n    /* \"#utility.yul\":4397:4514   */\ntag_30:\n    /* \"#utility.yul\":4506:4507   */\n  0x00\n    /* \"#utility.yul\":4503:4504   */\n  dup1\n    /* \"#utility.yul\":4496:4508   */\n  revert\n    /* \"#utility.yul\":4520:4637   */\ntag_53:\n    /* \"#utility.yul\":4629:4630   */\n  0x00\n    /* \"#utility.yul\":4626:4627   */\n  dup1\n    /* \"#utility.yul\":4619:4631   */\n  revert\n    /* \"#utility.yul\":4643:4760   */\ntag_50:\n    /* \"#utility.yul\":4752:4753   */\n  0x00\n    /* \"#utility.yul\":4749:4750   */\n  dup1\n    /* \"#utility.yul\":4742:4754   */\n  revert\n    /* \"#utility.yul\":4766:4868   */\ntag_71:\n    /* \"#utility.yul\":4807:4813   */\n  0x00\n    /* \"#utility.yul\":4858:4860   */\n  0x1f\n    /* \"#utility.yul\":4854:4861   */\n  not\n    /* \"#utility.yul\":4849:4851   */\n  0x1f\n    /* \"#utility.yul\":4842:4847   */\n  dup4\n    /* \"#utility.yul\":4838:4852   */\n  add\n    /* \"#utility.yul\":4834:4862   */\n  and\n    /* \"#utility.yul\":4824:4862   */\n  swap1\n  pop\n    /* \"#utility.yul\":4766:4868   */\n  swap2\n  swap1\n  pop\n  jump\t// out\n    /* \"#utility.yul\":4874:4996   */\ntag_42:\n    /* \"#utility.yul\":4947:4971   */\n  tag_98\n    /* \"#utility.yul\":4965:4970   */\n  dup2\n    /* \"#utility.yul\":4947:4971   */\n  tag_72\n  jump\t// in\ntag_98:\n    /* \"#utility.yul\":4940:4945   */\n  dup2\n    /* \"#utility.yul\":4937:4972   */\n  eq\n    /* \"#utility.yul\":4927:4990   */\n  tag_99\n  jumpi\n    /* \"#utility.yul\":4986:4987   */\n  0x00\n    /* \"#utility.yul\":4983:4984   */\n  dup1\n    /* \"#utility.yul\":4976:4988   */\n  revert\n    /* \"#utility.yul\":4927:4990   */\ntag_99:\n    /* \"#utility.yul\":4874:4996   */\n  pop\n  jump\t// out\n    /* \"#utility.yul\":5002:5120   */\ntag_46:\n    /* \"#utility.yul\":5073:5095   */\n  tag_101\n    /* \"#utility.yul\":5089:5094   */\n  dup2\n    /* \"#utility.yul\":5073:5095   */\n  tag_74\n  jump\t// in\ntag_101:\n    /* \"#utility.yul\":5066:5071   */\n  dup2\n    /* \"#utility.yul\":5063:5096   */\n  eq\n    /* \"#utility.yul\":5053:5114   */\n  tag_102\n  jumpi\n    /* \"#utility.yul\":5110:5111   */\n  0x00\n    /* \"#utility.yul\":5107:5108   */\n  dup1\n    /* \"#utility.yul\":5100:5112   */\n  revert\n    /* \"#utility.yul\":5053:5114   */\ntag_102:\n    /* \"#utility.yul\":5002:5120   */\n  pop\n  jump\t// out\n    /* \"contracts/ERC20.sol\":82:3171  contract ERC20 is IERC20 {... */\ntag_9:\n  dataSize(sub_0)\n  dup1\n  dataOffset(sub_0)\n  0x00\n  codecopy\n  0x00\n  return\nstop\n\nsub_0: assembly {\n        /* \"contracts/ERC20.sol\":82:3171  contract ERC20 is IERC20 {... */\n      mstore(0x40, 0x80)\n      callvalue\n      dup1\n      iszero\n      tag_1\n      jumpi\n      0x00\n      dup1\n      revert\n    tag_1:\n      pop\n      jumpi(tag_2, lt(calldatasize, 0x04))\n      shr(0xe0, calldataload(0x00))\n      dup1\n      0x42966c68\n      gt\n      tag_12\n      jumpi\n      dup1\n      0x42966c68\n      eq\n      tag_7\n      jumpi\n      dup1\n      0x70a08231\n      eq\n      tag_8\n      jumpi\n      dup1\n      0xa0712d68\n      eq\n      tag_9\n      jumpi\n      dup1\n      0xa9059cbb\n      eq\n      tag_10\n      jumpi\n      dup1\n      0xdd62ed3e\n      eq\n      tag_11\n      jumpi\n      jump(tag_2)\n    tag_12:\n      dup1\n      0x095ea7b3\n      eq\n      tag_3\n      jumpi\n      dup1\n      0x18160ddd\n      eq\n      tag_4\n      jumpi\n      dup1\n      0x23b872dd\n      eq\n      tag_5\n      jumpi\n      dup1\n      0x32424aa3\n      eq\n      tag_6\n      jumpi\n    tag_2:\n      0x00\n      dup1\n      revert\n        /* \"contracts/ERC20.sol\":1982:2192  function approve(address spender, uint amount) external override returns (bool) {... */\n    tag_3:\n      tag_13\n      0x04\n      dup1\n      calldatasize\n      sub\n      dup2\n      add\n      swap1\n      tag_14\n      swap2\n      swap1\n      tag_15\n      jump\t// in\n    tag_14:\n      tag_16\n      jump\t// in\n    tag_13:\n      mload(0x40)\n      tag_17\n      swap2\n      swap1\n      tag_18\n      jump\t// in\n    tag_17:\n      mload(0x40)\n      dup1\n      swap2\n      sub\n      swap1\n      return\n        /* \"contracts/ERC20.sol\":786:892  function totalSupply() public view virtual override returns (uint256) {... */\n    tag_4:\n      tag_19\n      tag_20\n      jump\t// in\n    tag_19:\n      mload(0x40)\n      tag_21\n      swap2\n      swap1\n      tag_22\n      jump\t// in\n    tag_21:\n      mload(0x40)\n      dup1\n      swap2\n      sub\n      swap1\n      return\n        /* \"contracts/ERC20.sol\":2329:2667  function transferFrom(... */\n    tag_5:\n      tag_23\n      0x04\n      dup1\n      calldatasize\n      sub\n      dup2\n      add\n      swap1\n      tag_24\n      swap2\n      swap1\n      tag_25\n      jump\t// in\n    tag_24:\n      tag_26\n      jump\t// in\n    tag_23:\n      mload(0x40)\n      tag_27\n      swap2\n      swap1\n      tag_18\n      jump\t// in\n    tag_27:\n      mload(0x40)\n      dup1\n      swap2\n      sub\n      swap1\n      return\n        /* \"contracts/ERC20.sol\":364:386  uint8 public _decimals */\n    tag_6:\n      tag_28\n      tag_29\n      jump\t// in\n    tag_28:\n      mload(0x40)\n      tag_30\n      swap2\n      swap1\n      tag_31\n      jump\t// in\n    tag_30:\n      mload(0x40)\n      dup1\n      swap2\n      sub\n      swap1\n      return\n        /* \"contracts/ERC20.sol\":2998:3169  function burn(uint amount) external {... */\n    tag_7:\n      tag_32\n      0x04\n      dup1\n      calldatasize\n      sub\n      dup2\n      add\n      swap1\n      tag_33\n      swap2\n      swap1\n      tag_34\n      jump\t// in\n    tag_33:\n      tag_35\n      jump\t// in\n    tag_32:\n      stop\n        /* \"contracts/ERC20.sol\":970:1095  function balanceOf(address account) public view virtual override returns (uint256) {... */\n    tag_8:\n      tag_36\n      0x04\n      dup1\n      calldatasize\n      sub\n      dup2\n      add\n      swap1\n      tag_37\n      swap2\n      swap1\n      tag_38\n      jump\t// in\n    tag_37:\n      tag_39\n      jump\t// in\n    tag_36:\n      mload(0x40)\n      tag_40\n      swap2\n      swap1\n      tag_22\n      jump\t// in\n    tag_40:\n      mload(0x40)\n      dup1\n      swap2\n      sub\n      swap1\n      return\n        /* \"contracts/ERC20.sol\":2747:2918  function mint(uint amount) external {... */\n    tag_9:\n      tag_41\n      0x04\n      dup1\n      calldatasize\n      sub\n      dup2\n      add\n      swap1\n      tag_42\n      swap2\n      swap1\n      tag_34\n      jump\t// in\n    tag_42:\n      tag_43\n      jump\t// in\n    tag_41:\n      stop\n        /* \"contracts/ERC20.sol\":1215:1461  function transfer(address recipient, uint amount) external override returns (bool) {... */\n    tag_10:\n      tag_44\n      0x04\n      dup1\n      calldatasize\n      sub\n      dup2\n      add\n      swap1\n      tag_45\n      swap2\n      swap1\n      tag_15\n      jump\t// in\n    tag_45:\n      tag_46\n      jump\t// in\n    tag_44:\n      mload(0x40)\n      tag_47\n      swap2\n      swap1\n      tag_18\n      jump\t// in\n    tag_47:\n      mload(0x40)\n      dup1\n      swap2\n      sub\n      swap1\n      return\n        /* \"contracts/ERC20.sol\":1647:1795  function allowance(address owner, address spender) public view virtual override returns (uint256) {... */\n    tag_11:\n      tag_48\n      0x04\n      dup1\n      calldatasize\n      sub\n      dup2\n      add\n      swap1\n      tag_49\n      swap2\n      swap1\n      tag_50\n      jump\t// in\n    tag_49:\n      tag_51\n      jump\t// in\n    tag_48:\n      mload(0x40)\n      tag_52\n      swap2\n      swap1\n      tag_22\n      jump\t// in\n    tag_52:\n      mload(0x40)\n      dup1\n      swap2\n      sub\n      swap1\n      return\n        /* \"contracts/ERC20.sol\":1982:2192  function approve(address spender, uint amount) external override returns (bool) {... */\n    tag_16:\n        /* \"contracts/ERC20.sol\":2056:2060  bool */\n      0x00\n        /* \"contracts/ERC20.sol\":2106:2112  amount */\n      dup2\n        /* \"contracts/ERC20.sol\":2072:2082  _allowance */\n      0x01\n        /* \"contracts/ERC20.sol\":2072:2094  _allowance[msg.sender] */\n      0x00\n        /* \"contracts/ERC20.sol\":2083:2093  msg.sender */\n      caller\n        /* \"contracts/ERC20.sol\":2072:2094  _allowance[msg.sender] */\n      0xffffffffffffffffffffffffffffffffffffffff\n      and\n      0xffffffffffffffffffffffffffffffffffffffff\n      and\n      dup2\n      mstore\n      0x20\n      add\n      swap1\n      dup2\n      mstore\n      0x20\n      add\n      0x00\n      keccak256\n        /* \"contracts/ERC20.sol\":2072:2103  _allowance[msg.sender][spender] */\n      0x00\n        /* \"contracts/ERC20.sol\":2095:2102  spender */\n      dup6\n        /* \"contracts/ERC20.sol\":2072:2103  _allowance[msg.sender][spender] */\n      0xffffffffffffffffffffffffffffffffffffffff\n      and\n      0xffffffffffffffffffffffffffffffffffffffff\n      and\n      dup2\n      mstore\n      0x20\n      add\n      swap1\n      dup2\n      mstore\n      0x20\n      add\n      0x00\n      keccak256\n        /* \"contracts/ERC20.sol\":2072:2112  _allowance[msg.sender][spender] = amount */\n      dup2\n      swap1\n      sstore\n      pop\n        /* \"contracts/ERC20.sol\":2148:2155  spender */\n      dup3\n        /* \"contracts/ERC20.sol\":2127:2164  Approval(msg.sender, spender, amount) */\n      0xffffffffffffffffffffffffffffffffffffffff\n      and\n        /* \"contracts/ERC20.sol\":2136:2146  msg.sender */\n      caller\n        /* \"contracts/ERC20.sol\":2127:2164  Approval(msg.sender, spender, amount) */\n      0xffffffffffffffffffffffffffffffffffffffff\n      and\n      0x8c5be1e5ebec7d5bd14f71427d1e84f3dd0314c0f7b2291e5b200ac8c7c3b925\n        /* \"contracts/ERC20.sol\":2157:2163  amount */\n      dup5\n        /* \"contracts/ERC20.sol\":2127:2164  Approval(msg.sender, spender, amount) */\n      mload(0x40)\n      tag_54\n      swap2\n      swap1\n      tag_22\n      jump\t// in\n    tag_54:\n      mload(0x40)\n      dup1\n      swap2\n      sub\n      swap1\n      log3\n        /* \"contracts/ERC20.sol\":2181:2185  true */\n      0x01\n        /* \"contracts/ERC20.sol\":2174:2185  return true */\n      swap1\n      pop\n        /* \"contracts/ERC20.sol\":1982:2192  function approve(address spender, uint amount) external override returns (bool) {... */\n      swap3\n      swap2\n      pop\n      pop\n      jump\t// out\n        /* \"contracts/ERC20.sol\":786:892  function totalSupply() public view virtual override returns (uint256) {... */\n    tag_20:\n        /* \"contracts/ERC20.sol\":847:854  uint256 */\n      0x00\n        /* \"contracts/ERC20.sol\":873:885  _totalSupply */\n      sload(0x04)\n        /* \"contracts/ERC20.sol\":866:885  return _totalSupply */\n      swap1\n      pop\n        /* \"contracts/ERC20.sol\":786:892  function totalSupply() public view virtual override returns (uint256) {... */\n      swap1\n      jump\t// out\n        /* \"contracts/ERC20.sol\":2329:2667  function transferFrom(... */\n    tag_26:\n        /* \"contracts/ERC20.sol\":2456:2460  bool */\n      0x00\n        /* \"contracts/ERC20.sol\":2506:2512  amount */\n      dup2\n        /* \"contracts/ERC20.sol\":2472:2482  _allowance */\n      0x01\n        /* \"contracts/ERC20.sol\":2472:2490  _allowance[sender] */\n      0x00\n        /* \"contracts/ERC20.sol\":2483:2489  sender */\n      dup7\n        /* \"contracts/ERC20.sol\":2472:2490  _allowance[sender] */\n      0xffffffffffffffffffffffffffffffffffffffff\n      and\n      0xffffffffffffffffffffffffffffffffffffffff\n      and\n      dup2\n      mstore\n      0x20\n      add\n      swap1\n      dup2\n      mstore\n      0x20\n      add\n      0x00\n      keccak256\n        /* \"contracts/ERC20.sol\":2472:2502  _allowance[sender][msg.sender] */\n      0x00\n        /* \"contracts/ERC20.sol\":2491:2501  msg.sender */\n      caller\n        /* \"contracts/ERC20.sol\":2472:2502  _allowance[sender][msg.sender] */\n      0xffffffffffffffffffffffffffffffffffffffff\n      and\n      0xffffffffffffffffffffffffffffffffffffffff\n      and\n      dup2\n      mstore\n      0x20\n      add\n      swap1\n      dup2\n      mstore\n      0x20\n      add\n      0x00\n      keccak256\n      0x00\n        /* \"contracts/ERC20.sol\":2472:2512  _allowance[sender][msg.sender] -= amount */\n      dup3\n      dup3\n      sload\n      tag_57\n      swap2\n      swap1\n      tag_58\n      jump\t// in\n    tag_57:\n      swap3\n      pop\n      pop\n      dup2\n      swap1\n      sstore\n      pop\n        /* \"contracts/ERC20.sol\":2543:2549  amount */\n      dup2\n        /* \"contracts/ERC20.sol\":2522:2531  _balances */\n      0x00\n        /* \"contracts/ERC20.sol\":2522:2539  _balances[sender] */\n      dup1\n        /* \"contracts/ERC20.sol\":2532:2538  sender */\n      dup7\n        /* \"contracts/ERC20.sol\":2522:2539  _balances[sender] */\n      0xffffffffffffffffffffffffffffffffffffffff\n      and\n      0xffffffffffffffffffffffffffffffffffffffff\n      and\n      dup2\n      mstore\n      0x20\n      add\n      swap1\n      dup2\n      mstore\n      0x20\n      add\n      0x00\n      keccak256\n      0x00\n        /* \"contracts/ERC20.sol\":2522:2549  _balances[sender] -= amount */\n      dup3\n      dup3\n      sload\n      tag_59\n      swap2\n      swap1\n      tag_58\n      jump\t// in\n    tag_59:\n      swap3\n      pop\n      pop\n      dup2\n      swap1\n      sstore\n      pop\n        /* \"contracts/ERC20.sol\":2583:2589  amount */\n      dup2\n        /* \"contracts/ERC20.sol\":2559:2568  _balances */\n      0x00\n        /* \"contracts/ERC20.sol\":2559:2579  _balances[recipient] */\n      dup1\n        /* \"contracts/ERC20.sol\":2569:2578  recipient */\n      dup6\n        /* \"contracts/ERC20.sol\":2559:2579  _balances[recipient] */\n      0xffffffffffffffffffffffffffffffffffffffff\n      and\n      0xffffffffffffffffffffffffffffffffffffffff\n      and\n      dup2\n      mstore\n      0x20\n      add\n      swap1\n      dup2\n      mstore\n      0x20\n      add\n      0x00\n      keccak256\n      0x00\n        /* \"contracts/ERC20.sol\":2559:2589  _balances[recipient] += amount */\n      dup3\n      dup3\n      sload\n      tag_60\n      swap2\n      swap1\n      tag_61\n      jump\t// in\n    tag_60:\n      swap3\n      pop\n      pop\n      dup2\n      swap1\n      sstore\n      pop\n        /* \"contracts/ERC20.sol\":2621:2630  recipient */\n      dup3\n        /* \"contracts/ERC20.sol\":2604:2639  Transfer(sender, recipient, amount) */\n      0xffffffffffffffffffffffffffffffffffffffff\n      and\n        /* \"contracts/ERC20.sol\":2613:2619  sender */\n      dup5\n        /* \"contracts/ERC20.sol\":2604:2639  Transfer(sender, recipient, amount) */\n      0xffffffffffffffffffffffffffffffffffffffff\n      and\n      0xddf252ad1be2c89b69c2b068fc378daa952ba7f163c4a11628f55a4df523b3ef\n        /* \"contracts/ERC20.sol\":2632:2638  amount */\n      dup5\n        /* \"contracts/ERC20.sol\":2604:2639  Transfer(sender, recipient, amount) */\n      mload(0x40)\n      tag_62\n      swap2\n      swap1\n      tag_22\n      jump\t// in\n    tag_62:\n      mload(0x40)\n      dup1\n      swap2\n      sub\n      swap1\n      log3\n        /* \"contracts/ERC20.sol\":2656:2660  true */\n      0x01\n        /* \"contracts/ERC20.sol\":2649:2660  return true */\n      swap1\n      pop\n        /* \"contracts/ERC20.sol\":2329:2667  function transferFrom(... */\n      swap4\n      swap3\n      pop\n      pop\n      pop\n      jump\t// out\n        /* \"contracts/ERC20.sol\":364:386  uint8 public _decimals */\n    tag_29:\n      0x05\n      0x00\n      swap1\n      sload\n      swap1\n      0x0100\n      exp\n      swap1\n      div\n      0xff\n      and\n      dup2\n      jump\t// out\n        /* \"contracts/ERC20.sol\":2998:3169  function burn(uint amount) external {... */\n    tag_35:\n        /* \"contracts/ERC20.sol\":3069:3075  amount */\n      dup1\n        /* \"contracts/ERC20.sol\":3044:3053  _balances */\n      0x00\n        /* \"contracts/ERC20.sol\":3044:3065  _balances[msg.sender] */\n      dup1\n        /* \"contracts/ERC20.sol\":3054:3064  msg.sender */\n      caller\n        /* \"contracts/ERC20.sol\":3044:3065  _balances[msg.sender] */\n      0xffffffffffffffffffffffffffffffffffffffff\n      and\n      0xffffffffffffffffffffffffffffffffffffffff\n      and\n      dup2\n      mstore\n      0x20\n      add\n      swap1\n      dup2\n      mstore\n      0x20\n      add\n      0x00\n      keccak256\n      0x00\n        /* \"contracts/ERC20.sol\":3044:3075  _balances[msg.sender] -= amount */\n      dup3\n      dup3\n      sload\n      tag_64\n      swap2\n      swap1\n      tag_58\n      jump\t// in\n    tag_64:\n      swap3\n      pop\n      pop\n      dup2\n      swap1\n      sstore\n      pop\n        /* \"contracts/ERC20.sol\":3101:3107  amount */\n      dup1\n        /* \"contracts/ERC20.sol\":3085:3097  _totalSupply */\n      0x04\n      0x00\n        /* \"contracts/ERC20.sol\":3085:3107  _totalSupply -= amount */\n      dup3\n      dup3\n      sload\n      tag_65\n      swap2\n      swap1\n      tag_58\n      jump\t// in\n    tag_65:\n      swap3\n      pop\n      pop\n      dup2\n      swap1\n      sstore\n      pop\n        /* \"contracts/ERC20.sol\":3151:3152  0 */\n      0x00\n        /* \"contracts/ERC20.sol\":3122:3162  Transfer(msg.sender, address(0), amount) */\n      0xffffffffffffffffffffffffffffffffffffffff\n      and\n        /* \"contracts/ERC20.sol\":3131:3141  msg.sender */\n      caller\n        /* \"contracts/ERC20.sol\":3122:3162  Transfer(msg.sender, address(0), amount) */\n      0xffffffffffffffffffffffffffffffffffffffff\n      and\n      0xddf252ad1be2c89b69c2b068fc378daa952ba7f163c4a11628f55a4df523b3ef\n        /* \"contracts/ERC20.sol\":3155:3161  amount */\n      dup4\n        /* \"contracts/ERC20.sol\":3122:3162  Transfer(msg.sender, address(0), amount) */\n      mload(0x40)\n      tag_66\n      swap2\n      swap1\n      tag_22\n      jump\t// in\n    tag_66:\n      mload(0x40)\n      dup1\n      swap2\n      sub\n      swap1\n      log3\n        /* \"contracts/ERC20.sol\":2998:3169  function burn(uint amount) external {... */\n      pop\n      jump\t// out\n        /* \"contracts/ERC20.sol\":970:1095  function balanceOf(address account) public view virtual override returns (uint256) {... */\n    tag_39:\n        /* \"contracts/ERC20.sol\":1044:1051  uint256 */\n      0x00\n        /* \"contracts/ERC20.sol\":1070:1079  _balances */\n      dup1\n        /* \"contracts/ERC20.sol\":1070:1088  _balances[account] */\n      0x00\n        /* \"contracts/ERC20.sol\":1080:1087  account */\n      dup4\n        /* \"contracts/ERC20.sol\":1070:1088  _balances[account] */\n      0xffffffffffffffffffffffffffffffffffffffff\n      and\n      0xffffffffffffffffffffffffffffffffffffffff\n      and\n      dup2\n      mstore\n      0x20\n      add\n      swap1\n      dup2\n      mstore\n      0x20\n      add\n      0x00\n      keccak256\n      sload\n        /* \"contracts/ERC20.sol\":1063:1088  return _balances[account] */\n      swap1\n      pop\n        /* \"contracts/ERC20.sol\":970:1095  function balanceOf(address account) public view virtual override returns (uint256) {... */\n      swap2\n      swap1\n      pop\n      jump\t// out\n        /* \"contracts/ERC20.sol\":2747:2918  function mint(uint amount) external {... */\n    tag_43:\n        /* \"contracts/ERC20.sol\":2818:2824  amount */\n      dup1\n        /* \"contracts/ERC20.sol\":2793:2802  _balances */\n      0x00\n        /* \"contracts/ERC20.sol\":2793:2814  _balances[msg.sender] */\n      dup1\n        /* \"contracts/ERC20.sol\":2803:2813  msg.sender */\n      caller\n        /* \"contracts/ERC20.sol\":2793:2814  _balances[msg.sender] */\n      0xffffffffffffffffffffffffffffffffffffffff\n      and\n      0xffffffffffffffffffffffffffffffffffffffff\n      and\n      dup2\n      mstore\n      0x20\n      add\n      swap1\n      dup2\n      mstore\n      0x20\n      add\n      0x00\n      keccak256\n      0x00\n        /* \"contracts/ERC20.sol\":2793:2824  _balances[msg.sender] += amount */\n      dup3\n      dup3\n      sload\n      tag_69\n      swap2\n      swap1\n      tag_61\n      jump\t// in\n    tag_69:\n      swap3\n      pop\n      pop\n      dup2\n      swap1\n      sstore\n      pop\n        /* \"contracts/ERC20.sol\":2850:2856  amount */\n      dup1\n        /* \"contracts/ERC20.sol\":2834:2846  _totalSupply */\n      0x04\n      0x00\n        /* \"contracts/ERC20.sol\":2834:2856  _totalSupply += amount */\n      dup3\n      dup3\n      sload\n      tag_70\n      swap2\n      swap1\n      tag_61\n      jump\t// in\n    tag_70:\n      swap3\n      pop\n      pop\n      dup2\n      swap1\n      sstore\n      pop\n        /* \"contracts/ERC20.sol\":2892:2902  msg.sender */\n      caller\n        /* \"contracts/ERC20.sol\":2871:2911  Transfer(address(0), msg.sender, amount) */\n      0xffffffffffffffffffffffffffffffffffffffff\n      and\n        /* \"contracts/ERC20.sol\":2888:2889  0 */\n      0x00\n        /* \"contracts/ERC20.sol\":2871:2911  Transfer(address(0), msg.sender, amount) */\n      0xffffffffffffffffffffffffffffffffffffffff\n      and\n      0xddf252ad1be2c89b69c2b068fc378daa952ba7f163c4a11628f55a4df523b3ef\n        /* \"contracts/ERC20.sol\":2904:2910  amount */\n      dup4\n        /* \"contracts/ERC20.sol\":2871:2911  Transfer(address(0), msg.sender, amount) */\n      mload(0x40)\n      tag_71\n      swap2\n      swap1\n      tag_22\n      jump\t// in\n    tag_71:\n      mload(0x40)\n      dup1\n      swap2\n      sub\n      swap1\n      log3\n        /* \"contracts/ERC20.sol\":2747:2918  function mint(uint amount) external {... */\n      pop\n      jump\t// out\n        /* \"contracts/ERC20.sol\":1215:1461  function transfer(address recipient, uint amount) external override returns (bool) {... */\n    tag_46:\n        /* \"contracts/ERC20.sol\":1292:1296  bool */\n      0x00\n        /* \"contracts/ERC20.sol\":1333:1339  amount */\n      dup2\n        /* \"contracts/ERC20.sol\":1308:1317  _balances */\n      0x00\n        /* \"contracts/ERC20.sol\":1308:1329  _balances[msg.sender] */\n      dup1\n        /* \"contracts/ERC20.sol\":1318:1328  msg.sender */\n      caller\n        /* \"contracts/ERC20.sol\":1308:1329  _balances[msg.sender] */\n      0xffffffffffffffffffffffffffffffffffffffff\n      and\n      0xffffffffffffffffffffffffffffffffffffffff\n      and\n      dup2\n      mstore\n      0x20\n      add\n      swap1\n      dup2\n      mstore\n      0x20\n      add\n      0x00\n      keccak256\n      0x00\n        /* \"contracts/ERC20.sol\":1308:1339  _balances[msg.sender] -= amount */\n      dup3\n      dup3\n      sload\n      tag_73\n      swap2\n      swap1\n      tag_58\n      jump\t// in\n    tag_73:\n      swap3\n      pop\n      pop\n      dup2\n      swap1\n      sstore\n      pop\n        /* \"contracts/ERC20.sol\":1373:1379  amount */\n      dup2\n        /* \"contracts/ERC20.sol\":1349:1358  _balances */\n      0x00\n        /* \"contracts/ERC20.sol\":1349:1369  _balances[recipient] */\n      dup1\n        /* \"contracts/ERC20.sol\":1359:1368  recipient */\n      dup6\n        /* \"contracts/ERC20.sol\":1349:1369  _balances[recipient] */\n      0xffffffffffffffffffffffffffffffffffffffff\n      and\n      0xffffffffffffffffffffffffffffffffffffffff\n      and\n      dup2\n      mstore\n      0x20\n      add\n      swap1\n      dup2\n      mstore\n      0x20\n      add\n      0x00\n      keccak256\n      0x00\n        /* \"contracts/ERC20.sol\":1349:1379  _balances[recipient] += amount */\n      dup3\n      dup3\n      sload\n      tag_74\n      swap2\n      swap1\n      tag_61\n      jump\t// in\n    tag_74:\n      swap3\n      pop\n      pop\n      dup2\n      swap1\n      sstore\n      pop\n        /* \"contracts/ERC20.sol\":1415:1424  recipient */\n      dup3\n        /* \"contracts/ERC20.sol\":1394:1433  Transfer(msg.sender, recipient, amount) */\n      0xffffffffffffffffffffffffffffffffffffffff\n      and\n        /* \"contracts/ERC20.sol\":1403:1413  msg.sender */\n      caller\n        /* \"contracts/ERC20.sol\":1394:1433  Transfer(msg.sender, recipient, amount) */\n      0xffffffffffffffffffffffffffffffffffffffff\n      and\n      0xddf252ad1be2c89b69c2b068fc378daa952ba7f163c4a11628f55a4df523b3ef\n        /* \"contracts/ERC20.sol\":1426:1432  amount */\n      dup5\n        /* \"contracts/ERC20.sol\":1394:1433  Transfer(msg.sender, recipient, amount) */\n      mload(0x40)\n      tag_75\n      swap2\n      swap1\n      tag_22\n      jump\t// in\n    tag_75:\n      mload(0x40)\n      dup1\n      swap2\n      sub\n      swap1\n      log3\n        /* \"contracts/ERC20.sol\":1450:1454  true */\n      0x01\n        /* \"contracts/ERC20.sol\":1443:1454  return true */\n      swap1\n      pop\n        /* \"contracts/ERC20.sol\":1215:1461  function transfer(address recipient, uint amount) external override returns (bool) {... */\n      swap3\n      swap2\n      pop\n      pop\n      jump\t// out\n        /* \"contracts/ERC20.sol\":1647:1795  function allowance(address owner, address spender) public view virtual override returns (uint256) {... */\n    tag_51:\n        /* \"contracts/ERC20.sol\":1736:1743  uint256 */\n      0x00\n        /* \"contracts/ERC20.sol\":1762:1772  _allowance */\n      0x01\n        /* \"contracts/ERC20.sol\":1762:1779  _allowance[owner] */\n      0x00\n        /* \"contracts/ERC20.sol\":1773:1778  owner */\n      dup5\n        /* \"contracts/ERC20.sol\":1762:1779  _allowance[owner] */\n      0xffffffffffffffffffffffffffffffffffffffff\n      and\n      0xffffffffffffffffffffffffffffffffffffffff\n      and\n      dup2\n      mstore\n      0x20\n      add\n      swap1\n      dup2\n      mstore\n      0x20\n      add\n      0x00\n      keccak256\n        /* \"contracts/ERC20.sol\":1762:1788  _allowance[owner][spender] */\n      0x00\n        /* \"contracts/ERC20.sol\":1780:1787  spender */\n      dup4\n        /* \"contracts/ERC20.sol\":1762:1788  _allowance[owner][spender] */\n      0xffffffffffffffffffffffffffffffffffffffff\n      and\n      0xffffffffffffffffffffffffffffffffffffffff\n      and\n      dup2\n      mstore\n      0x20\n      add\n      swap1\n      dup2\n      mstore\n      0x20\n      add\n      0x00\n      keccak256\n      sload\n        /* \"contracts/ERC20.sol\":1755:1788  return _allowance[owner][spender] */\n      swap1\n      pop\n        /* \"contracts/ERC20.sol\":1647:1795  function allowance(address owner, address spender) public view virtual override returns (uint256) {... */\n      swap3\n      swap2\n      pop\n      pop\n      jump\t// out\n        /* \"#utility.yul\":7:146   */\n    tag_78:\n        /* \"#utility.yul\":53:58   */\n      0x00\n        /* \"#utility.yul\":91:97   */\n      dup2\n        /* \"#utility.yul\":78:98   */\n      calldataload\n        /* \"#utility.yul\":69:98   */\n      swap1\n      pop\n        /* \"#utility.yul\":107:140   */\n      tag_80\n        /* \"#utility.yul\":134:139   */\n      dup2\n        /* \"#utility.yul\":107:140   */\n      tag_81\n      jump\t// in\n    tag_80:\n        /* \"#utility.yul\":7:146   */\n      swap3\n      swap2\n      pop\n      pop\n      jump\t// out\n        /* \"#utility.yul\":152:291   */\n    tag_82:\n        /* \"#utility.yul\":198:203   */\n      0x00\n        /* \"#utility.yul\":236:242   */\n      dup2\n        /* \"#utility.yul\":223:243   */\n      calldataload\n        /* \"#utility.yul\":214:243   */\n      swap1\n      pop\n        /* \"#utility.yul\":252:285   */\n      tag_84\n        /* \"#utility.yul\":279:284   */\n      dup2\n        /* \"#utility.yul\":252:285   */\n      tag_85\n      jump\t// in\n    tag_84:\n        /* \"#utility.yul\":152:291   */\n      swap3\n      swap2\n      pop\n      pop\n      jump\t// out\n        /* \"#utility.yul\":297:626   */\n    tag_38:\n        /* \"#utility.yul\":356:362   */\n      0x00\n        /* \"#utility.yul\":405:407   */\n      0x20\n        /* \"#utility.yul\":393:402   */\n      dup3\n        /* \"#utility.yul\":384:391   */\n      dup5\n        /* \"#utility.yul\":380:403   */\n      sub\n        /* \"#utility.yul\":376:408   */\n      slt\n        /* \"#utility.yul\":373:492   */\n      iszero\n      tag_87\n      jumpi\n        /* \"#utility.yul\":411:490   */\n      tag_88\n      tag_89\n      jump\t// in\n    tag_88:\n        /* \"#utility.yul\":373:492   */\n    tag_87:\n        /* \"#utility.yul\":531:532   */\n      0x00\n        /* \"#utility.yul\":556:609   */\n      tag_90\n        /* \"#utility.yul\":601:608   */\n      dup5\n        /* \"#utility.yul\":592:598   */\n      dup3\n        /* \"#utility.yul\":581:590   */\n      dup6\n        /* \"#utility.yul\":577:599   */\n      add\n        /* \"#utility.yul\":556:609   */\n      tag_78\n      jump\t// in\n    tag_90:\n        /* \"#utility.yul\":546:609   */\n      swap2\n      pop\n        /* \"#utility.yul\":502:619   */\n      pop\n        /* \"#utility.yul\":297:626   */\n      swap3\n      swap2\n      pop\n      pop\n      jump\t// out\n        /* \"#utility.yul\":632:1106   */\n    tag_50:\n        /* \"#utility.yul\":700:706   */\n      0x00\n        /* \"#utility.yul\":708:714   */\n      dup1\n        /* \"#utility.yul\":757:759   */\n      0x40\n        /* \"#utility.yul\":745:754   */\n      dup4\n        /* \"#utility.yul\":736:743   */\n      dup6\n        /* \"#utility.yul\":732:755   */\n      sub\n        /* \"#utility.yul\":728:760   */\n      slt\n        /* \"#utility.yul\":725:844   */\n      iszero\n      tag_92\n      jumpi\n        /* \"#utility.yul\":763:842   */\n      tag_93\n      tag_89\n      jump\t// in\n    tag_93:\n        /* \"#utility.yul\":725:844   */\n    tag_92:\n        /* \"#utility.yul\":883:884   */\n      0x00\n        /* \"#utility.yul\":908:961   */\n      tag_94\n        /* \"#utility.yul\":953:960   */\n      dup6\n        /* \"#utility.yul\":944:950   */\n      dup3\n        /* \"#utility.yul\":933:942   */\n      dup7\n        /* \"#utility.yul\":929:951   */\n      add\n        /* \"#utility.yul\":908:961   */\n      tag_78\n      jump\t// in\n    tag_94:\n        /* \"#utility.yul\":898:961   */\n      swap3\n      pop\n        /* \"#utility.yul\":854:971   */\n      pop\n        /* \"#utility.yul\":1010:1012   */\n      0x20\n        /* \"#utility.yul\":1036:1089   */\n      tag_95\n        /* \"#utility.yul\":1081:1088   */\n      dup6\n        /* \"#utility.yul\":1072:1078   */\n      dup3\n        /* \"#utility.yul\":1061:1070   */\n      dup7\n        /* \"#utility.yul\":1057:1079   */\n      add\n        /* \"#utility.yul\":1036:1089   */\n      tag_78\n      jump\t// in\n    tag_95:\n        /* \"#utility.yul\":1026:1089   */\n      swap2\n      pop\n        /* \"#utility.yul\":981:1099   */\n      pop\n        /* \"#utility.yul\":632:1106   */\n      swap3\n      pop\n      swap3\n      swap1\n      pop\n      jump\t// out\n        /* \"#utility.yul\":1112:1731   */\n    tag_25:\n        /* \"#utility.yul\":1189:1195   */\n      0x00\n        /* \"#utility.yul\":1197:1203   */\n      dup1\n        /* \"#utility.yul\":1205:1211   */\n      0x00\n        /* \"#utility.yul\":1254:1256   */\n      0x60\n        /* \"#utility.yul\":1242:1251   */\n      dup5\n        /* \"#utility.yul\":1233:1240   */\n      dup7\n        /* \"#utility.yul\":1229:1252   */\n      sub\n        /* \"#utility.yul\":1225:1257   */\n      slt\n        /* \"#utility.yul\":1222:1341   */\n      iszero\n      tag_97\n      jumpi\n        /* \"#utility.yul\":1260:1339   */\n      tag_98\n      tag_89\n      jump\t// in\n    tag_98:\n        /* \"#utility.yul\":1222:1341   */\n    tag_97:\n        /* \"#utility.yul\":1380:1381   */\n      0x00\n        /* \"#utility.yul\":1405:1458   */\n      tag_99\n        /* \"#utility.yul\":1450:1457   */\n      dup7\n        /* \"#utility.yul\":1441:1447   */\n      dup3\n        /* \"#utility.yul\":1430:1439   */\n      dup8\n        /* \"#utility.yul\":1426:1448   */\n      add\n        /* \"#utility.yul\":1405:1458   */\n      tag_78\n      jump\t// in\n    tag_99:\n        /* \"#utility.yul\":1395:1458   */\n      swap4\n      pop\n        /* \"#utility.yul\":1351:1468   */\n      pop\n        /* \"#utility.yul\":1507:1509   */\n      0x20\n        /* \"#utility.yul\":1533:1586   */\n      tag_100\n        /* \"#utility.yul\":1578:1585   */\n      dup7\n        /* \"#utility.yul\":1569:1575   */\n      dup3\n        /* \"#utility.yul\":1558:1567   */\n      dup8\n        /* \"#utility.yul\":1554:1576   */\n      add\n        /* \"#utility.yul\":1533:1586   */\n      tag_78\n      jump\t// in\n    tag_100:\n        /* \"#utility.yul\":1523:1586   */\n      swap3\n      pop\n        /* \"#utility.yul\":1478:1596   */\n      pop\n        /* \"#utility.yul\":1635:1637   */\n      0x40\n        /* \"#utility.yul\":1661:1714   */\n      tag_101\n        /* \"#utility.yul\":1706:1713   */\n      dup7\n        /* \"#utility.yul\":1697:1703   */\n      dup3\n        /* \"#utility.yul\":1686:1695   */\n      dup8\n        /* \"#utility.yul\":1682:1704   */\n      add\n        /* \"#utility.yul\":1661:1714   */\n      tag_82\n      jump\t// in\n    tag_101:\n        /* \"#utility.yul\":1651:1714   */\n      swap2\n      pop\n        /* \"#utility.yul\":1606:1724   */\n      pop\n        /* \"#utility.yul\":1112:1731   */\n      swap3\n      pop\n      swap3\n      pop\n      swap3\n      jump\t// out\n        /* \"#utility.yul\":1737:2211   */\n    tag_15:\n        /* \"#utility.yul\":1805:1811   */\n      0x00\n        /* \"#utility.yul\":1813:1819   */\n      dup1\n        /* \"#utility.yul\":1862:1864   */\n      0x40\n        /* \"#utility.yul\":1850:1859   */\n      dup4\n        /* \"#utility.yul\":1841:1848   */\n      dup6\n        /* \"#utility.yul\":1837:1860   */\n      sub\n        /* \"#utility.yul\":1833:1865   */\n      slt\n        /* \"#utility.yul\":1830:1949   */\n      iszero\n      tag_103\n      jumpi\n        /* \"#utility.yul\":1868:1947   */\n      tag_104\n      tag_89\n      jump\t// in\n    tag_104:\n        /* \"#utility.yul\":1830:1949   */\n    tag_103:\n        /* \"#utility.yul\":1988:1989   */\n      0x00\n        /* \"#utility.yul\":2013:2066   */\n      tag_105\n        /* \"#utility.yul\":2058:2065   */\n      dup6\n        /* \"#utility.yul\":2049:2055   */\n      dup3\n        /* \"#utility.yul\":2038:2047   */\n      dup7\n        /* \"#utility.yul\":2034:2056   */\n      add\n        /* \"#utility.yul\":2013:2066   */\n      tag_78\n      jump\t// in\n    tag_105:\n        /* \"#utility.yul\":2003:2066   */\n      swap3\n      pop\n        /* \"#utility.yul\":1959:2076   */\n      pop\n        /* \"#utility.yul\":2115:2117   */\n      0x20\n        /* \"#utility.yul\":2141:2194   */\n      tag_106\n        /* \"#utility.yul\":2186:2193   */\n      dup6\n        /* \"#utility.yul\":2177:2183   */\n      dup3\n        /* \"#utility.yul\":2166:2175   */\n      dup7\n        /* \"#utility.yul\":2162:2184   */\n      add\n        /* \"#utility.yul\":2141:2194   */\n      tag_82\n      jump\t// in\n    tag_106:\n        /* \"#utility.yul\":2131:2194   */\n      swap2\n      pop\n        /* \"#utility.yul\":2086:2204   */\n      pop\n        /* \"#utility.yul\":1737:2211   */\n      swap3\n      pop\n      swap3\n      swap1\n      pop\n      jump\t// out\n        /* \"#utility.yul\":2217:2546   */\n    tag_34:\n        /* \"#utility.yul\":2276:2282   */\n      0x00\n        /* \"#utility.yul\":2325:2327   */\n      0x20\n        /* \"#utility.yul\":2313:2322   */\n      dup3\n        /* \"#utility.yul\":2304:2311   */\n      dup5\n        /* \"#utility.yul\":2300:2323   */\n      sub\n        /* \"#utility.yul\":2296:2328   */\n      slt\n        /* \"#utility.yul\":2293:2412   */\n      iszero\n      tag_108\n      jumpi\n        /* \"#utility.yul\":2331:2410   */\n      tag_109\n      tag_89\n      jump\t// in\n    tag_109:\n        /* \"#utility.yul\":2293:2412   */\n    tag_108:\n        /* \"#utility.yul\":2451:2452   */\n      0x00\n        /* \"#utility.yul\":2476:2529   */\n      tag_110\n        /* \"#utility.yul\":2521:2528   */\n      dup5\n        /* \"#utility.yul\":2512:2518   */\n      dup3\n        /* \"#utility.yul\":2501:2510   */\n      dup6\n        /* \"#utility.yul\":2497:2519   */\n      add\n        /* \"#utility.yul\":2476:2529   */\n      tag_82\n      jump\t// in\n    tag_110:\n        /* \"#utility.yul\":2466:2529   */\n      swap2\n      pop\n        /* \"#utility.yul\":2422:2539   */\n      pop\n        /* \"#utility.yul\":2217:2546   */\n      swap3\n      swap2\n      pop\n      pop\n      jump\t// out\n        /* \"#utility.yul\":2552:2661   */\n    tag_111:\n        /* \"#utility.yul\":2633:2654   */\n      tag_113\n        /* \"#utility.yul\":2648:2653   */\n      dup2\n        /* \"#utility.yul\":2633:2654   */\n      tag_114\n      jump\t// in\n    tag_113:\n        /* \"#utility.yul\":2628:2631   */\n      dup3\n        /* \"#utility.yul\":2621:2655   */\n      mstore\n        /* \"#utility.yul\":2552:2661   */\n      pop\n      pop\n      jump\t// out\n        /* \"#utility.yul\":2667:2785   */\n    tag_115:\n        /* \"#utility.yul\":2754:2778   */\n      tag_117\n        /* \"#utility.yul\":2772:2777   */\n      dup2\n        /* \"#utility.yul\":2754:2778   */\n      tag_118\n      jump\t// in\n    tag_117:\n        /* \"#utility.yul\":2749:2752   */\n      dup3\n        /* \"#utility.yul\":2742:2779   */\n      mstore\n        /* \"#utility.yul\":2667:2785   */\n      pop\n      pop\n      jump\t// out\n        /* \"#utility.yul\":2791:2903   */\n    tag_119:\n        /* \"#utility.yul\":2874:2896   */\n      tag_121\n        /* \"#utility.yul\":2890:2895   */\n      dup2\n        /* \"#utility.yul\":2874:2896   */\n      tag_122\n      jump\t// in\n    tag_121:\n        /* \"#utility.yul\":2869:2872   */\n      dup3\n        /* \"#utility.yul\":2862:2897   */\n      mstore\n        /* \"#utility.yul\":2791:2903   */\n      pop\n      pop\n      jump\t// out\n        /* \"#utility.yul\":2909:3119   */\n    tag_18:\n        /* \"#utility.yul\":2996:3000   */\n      0x00\n        /* \"#utility.yul\":3034:3036   */\n      0x20\n        /* \"#utility.yul\":3023:3032   */\n      dup3\n        /* \"#utility.yul\":3019:3037   */\n      add\n        /* \"#utility.yul\":3011:3037   */\n      swap1\n      pop\n        /* \"#utility.yul\":3047:3112   */\n      tag_124\n        /* \"#utility.yul\":3109:3110   */\n      0x00\n        /* \"#utility.yul\":3098:3107   */\n      dup4\n        /* \"#utility.yul\":3094:3111   */\n      add\n        /* \"#utility.yul\":3085:3091   */\n      dup5\n        /* \"#utility.yul\":3047:3112   */\n      tag_111\n      jump\t// in\n    tag_124:\n        /* \"#utility.yul\":2909:3119   */\n      swap3\n      swap2\n      pop\n      pop\n      jump\t// out\n        /* \"#utility.yul\":3125:3347   */\n    tag_22:\n        /* \"#utility.yul\":3218:3222   */\n      0x00\n        /* \"#utility.yul\":3256:3258   */\n      0x20\n        /* \"#utility.yul\":3245:3254   */\n      dup3\n        /* \"#utility.yul\":3241:3259   */\n      add\n        /* \"#utility.yul\":3233:3259   */\n      swap1\n      pop\n        /* \"#utility.yul\":3269:3340   */\n      tag_126\n        /* \"#utility.yul\":3337:3338   */\n      0x00\n        /* \"#utility.yul\":3326:3335   */\n      dup4\n        /* \"#utility.yul\":3322:3339   */\n      add\n        /* \"#utility.yul\":3313:3319   */\n      dup5\n        /* \"#utility.yul\":3269:3340   */\n      tag_115\n      jump\t// in\n    tag_126:\n        /* \"#utility.yul\":3125:3347   */\n      swap3\n      swap2\n      pop\n      pop\n      jump\t// out\n        /* \"#utility.yul\":3353:3567   */\n    tag_31:\n        /* \"#utility.yul\":3442:3446   */\n      0x00\n        /* \"#utility.yul\":3480:3482   */\n      0x20\n        /* \"#utility.yul\":3469:3478   */\n      dup3\n        /* \"#utility.yul\":3465:3483   */\n      add\n        /* \"#utility.yul\":3457:3483   */\n      swap1\n      pop\n        /* \"#utility.yul\":3493:3560   */\n      tag_128\n        /* \"#utility.yul\":3557:3558   */\n      0x00\n        /* \"#utility.yul\":3546:3555   */\n      dup4\n        /* \"#utility.yul\":3542:3559   */\n      add\n        /* \"#utility.yul\":3533:3539   */\n      dup5\n        /* \"#utility.yul\":3493:3560   */\n      tag_119\n      jump\t// in\n    tag_128:\n        /* \"#utility.yul\":3353:3567   */\n      swap3\n      swap2\n      pop\n      pop\n      jump\t// out\n        /* \"#utility.yul\":3654:3959   */\n    tag_61:\n        /* \"#utility.yul\":3694:3697   */\n      0x00\n        /* \"#utility.yul\":3713:3733   */\n      tag_132\n        /* \"#utility.yul\":3731:3732   */\n      dup3\n        /* \"#utility.yul\":3713:3733   */\n      tag_118\n      jump\t// in\n    tag_132:\n        /* \"#utility.yul\":3708:3733   */\n      swap2\n      pop\n        /* \"#utility.yul\":3747:3767   */\n      tag_133\n        /* \"#utility.yul\":3765:3766   */\n      dup4\n        /* \"#utility.yul\":3747:3767   */\n      tag_118\n      jump\t// in\n    tag_133:\n        /* \"#utility.yul\":3742:3767   */\n      swap3\n      pop\n        /* \"#utility.yul\":3901:3902   */\n      dup3\n        /* \"#utility.yul\":3833:3899   */\n      0xffffffffffffffffffffffffffffffffffffffffffffffffffffffffffffffff\n        /* \"#utility.yul\":3829:3903   */\n      sub\n        /* \"#utility.yul\":3826:3827   */\n      dup3\n        /* \"#utility.yul\":3823:3904   */\n      gt\n        /* \"#utility.yul\":3820:3927   */\n      iszero\n      tag_134\n      jumpi\n        /* \"#utility.yul\":3907:3925   */\n      tag_135\n      tag_136\n      jump\t// in\n    tag_135:\n        /* \"#utility.yul\":3820:3927   */\n    tag_134:\n        /* \"#utility.yul\":3951:3952   */\n      dup3\n        /* \"#utility.yul\":3948:3949   */\n      dup3\n        /* \"#utility.yul\":3944:3953   */\n      add\n        /* \"#utility.yul\":3937:3953   */\n      swap1\n      pop\n        /* \"#utility.yul\":3654:3959   */\n      swap3\n      swap2\n      pop\n      pop\n      jump\t// out\n        /* \"#utility.yul\":3965:4156   */\n    tag_58:\n        /* \"#utility.yul\":4005:4009   */\n      0x00\n        /* \"#utility.yul\":4025:4045   */\n      tag_138\n        /* \"#utility.yul\":4043:4044   */\n      dup3\n        /* \"#utility.yul\":4025:4045   */\n      tag_118\n      jump\t// in\n    tag_138:\n        /* \"#utility.yul\":4020:4045   */\n      swap2\n      pop\n        /* \"#utility.yul\":4059:4079   */\n      tag_139\n        /* \"#utility.yul\":4077:4078   */\n      dup4\n        /* \"#utility.yul\":4059:4079   */\n      tag_118\n      jump\t// in\n    tag_139:\n        /* \"#utility.yul\":4054:4079   */\n      swap3\n      pop\n        /* \"#utility.yul\":4098:4099   */\n      dup3\n        /* \"#utility.yul\":4095:4096   */\n      dup3\n        /* \"#utility.yul\":4092:4100   */\n      lt\n        /* \"#utility.yul\":4089:4123   */\n      iszero\n      tag_140\n      jumpi\n        /* \"#utility.yul\":4103:4121   */\n      tag_141\n      tag_136\n      jump\t// in\n    tag_141:\n        /* \"#utility.yul\":4089:4123   */\n    tag_140:\n        /* \"#utility.yul\":4148:4149   */\n      dup3\n        /* \"#utility.yul\":4145:4146   */\n      dup3\n        /* \"#utility.yul\":4141:4150   */\n      sub\n        /* \"#utility.yul\":4133:4150   */\n      swap1\n      pop\n        /* \"#utility.yul\":3965:4156   */\n      swap3\n      swap2\n      pop\n      pop\n      jump\t// out\n        /* \"#utility.yul\":4162:4258   */\n    tag_142:\n        /* \"#utility.yul\":4199:4206   */\n      0x00\n        /* \"#utility.yul\":4228:4252   */\n      tag_144\n        /* \"#utility.yul\":4246:4251   */\n      dup3\n        /* \"#utility.yul\":4228:4252   */\n      tag_145\n      jump\t// in\n    tag_144:\n        /* \"#utility.yul\":4217:4252   */\n      swap1\n      pop\n        /* \"#utility.yul\":4162:4258   */\n      swap2\n      swap1\n      pop\n      jump\t// out\n        /* \"#utility.yul\":4264:4354   */\n    tag_114:\n        /* \"#utility.yul\":4298:4305   */\n      0x00\n        /* \"#utility.yul\":4341:4346   */\n      dup2\n        /* \"#utility.yul\":4334:4347   */\n      iszero\n        /* \"#utility.yul\":4327:4348   */\n      iszero\n        /* \"#utility.yul\":4316:4348   */\n      swap1\n      pop\n        /* \"#utility.yul\":4264:4354   */\n      swap2\n      swap1\n      pop\n      jump\t// out\n        /* \"#utility.yul\":4360:4486   */\n    tag_145:\n        /* \"#utility.yul\":4397:4404   */\n      0x00\n        /* \"#utility.yul\":4437:4479   */\n      0xffffffffffffffffffffffffffffffffffffffff\n        /* \"#utility.yul\":4430:4435   */\n      dup3\n        /* \"#utility.yul\":4426:4480   */\n      and\n        /* \"#utility.yul\":4415:4480   */\n      swap1\n      pop\n        /* \"#utility.yul\":4360:4486   */\n      swap2\n      swap1\n      pop\n      jump\t// out\n        /* \"#utility.yul\":4492:4569   */\n    tag_118:\n        /* \"#utility.yul\":4529:4536   */\n      0x00\n        /* \"#utility.yul\":4558:4563   */\n      dup2\n        /* \"#utility.yul\":4547:4563   */\n      swap1\n      pop\n        /* \"#utility.yul\":4492:4569   */\n      swap2\n      swap1\n      pop\n      jump\t// out\n        /* \"#utility.yul\":4575:4661   */\n    tag_122:\n        /* \"#utility.yul\":4610:4617   */\n      0x00\n        /* \"#utility.yul\":4650:4654   */\n      0xff\n        /* \"#utility.yul\":4643:4648   */\n      dup3\n        /* \"#utility.yul\":4639:4655   */\n      and\n        /* \"#utility.yul\":4628:4655   */\n      swap1\n      pop\n        /* \"#utility.yul\":4575:4661   */\n      swap2\n      swap1\n      pop\n      jump\t// out\n        /* \"#utility.yul\":4667:4847   */\n    tag_136:\n        /* \"#utility.yul\":4715:4792   */\n      0x4e487b7100000000000000000000000000000000000000000000000000000000\n        /* \"#utility.yul\":4712:4713   */\n      0x00\n        /* \"#utility.yul\":4705:4793   */\n      mstore\n        /* \"#utility.yul\":4812:4816   */\n      0x11\n        /* \"#utility.yul\":4809:4810   */\n      0x04\n        /* \"#utility.yul\":4802:4817   */\n      mstore\n        /* \"#utility.yul\":4836:4840   */\n      0x24\n        /* \"#utility.yul\":4833:4834   */\n      0x00\n        /* \"#utility.yul\":4826:4841   */\n      revert\n        /* \"#utility.yul\":4976:5093   */\n    tag_89:\n        /* \"#utility.yul\":5085:5086   */\n      0x00\n        /* \"#utility.yul\":5082:5083   */\n      dup1\n        /* \"#utility.yul\":5075:5087   */\n      revert\n        /* \"#utility.yul\":5099:5221   */\n    tag_81:\n        /* \"#utility.yul\":5172:5196   */\n      tag_155\n        /* \"#utility.yul\":5190:5195   */\n      dup2\n        /* \"#utility.yul\":5172:5196   */\n      tag_142\n      jump\t// in\n    tag_155:\n        /* \"#utility.yul\":5165:5170   */\n      dup2\n        /* \"#utility.yul\":5162:5197   */\n      eq\n        /* \"#utility.yul\":5152:5215   */\n      tag_156\n      jumpi\n        /* \"#utility.yul\":5211:5212   */\n      0x00\n        /* \"#utility.yul\":5208:5209   */\n      dup1\n        /* \"#utility.yul\":5201:5213   */\n      revert\n        /* \"#utility.yul\":5152:5215   */\n    tag_156:\n        /* \"#utility.yul\":5099:5221   */\n      pop\n      jump\t// out\n        /* \"#utility.yul\":5227:5349   */\n    tag_85:\n        /* \"#utility.yul\":5300:5324   */\n      tag_158\n        /* \"#utility.yul\":5318:5323   */\n      dup2\n        /* \"#utility.yul\":5300:5324   */\n      tag_118\n      jump\t// in\n    tag_158:\n        /* \"#utility.yul\":5293:5298   */\n      dup2\n        /* \"#utility.yul\":5290:5325   */\n      eq\n        /* \"#utility.yul\":5280:5343   */\n      tag_159\n      jumpi\n        /* \"#utility.yul\":5339:5340   */\n      0x00\n        /* \"#utility.yul\":5336:5337   */\n      dup1\n        /* \"#utility.yul\":5329:5341   */\n      revert\n        /* \"#utility.yul\":5280:5343   */\n    tag_159:\n        /* \"#utility.yul\":5227:5349   */\n      pop\n      jump\t// out\n\n    auxdata: 0xa26469706673582212207d3f0259778596cf6f798a539e11a55a76d7876deda3a16b1f6661a51be435ec64736f6c63430008070033\n}\n",
				"bytecode": {
					"linkReferences": {},
					"object": "60806040523480156200001157600080fd5b506040516200101e3803806200101e8339818101604052810190620000379190620001f1565b83600290805190602001906200004f92919062000095565b5082600390805190602001906200006892919062000095565b508160048190555080600560006101000a81548160ff021916908360ff1602179055505050505062000470565b828054620000a3906200034d565b90600052602060002090601f016020900481019282620000c7576000855562000113565b82601f10620000e257805160ff191683800117855562000113565b8280016001018555821562000113579182015b8281111562000112578251825591602001919060010190620000f5565b5b50905062000122919062000126565b5090565b5b808211156200014157600081600090555060010162000127565b5090565b60006200015c6200015684620002ca565b620002a1565b9050828152602081018484840111156200017b576200017a6200041c565b5b6200018884828562000317565b509392505050565b600082601f830112620001a857620001a762000417565b5b8151620001ba84826020860162000145565b91505092915050565b600081519050620001d4816200043c565b92915050565b600081519050620001eb8162000456565b92915050565b600080600080608085870312156200020e576200020d62000426565b5b600085015167ffffffffffffffff8111156200022f576200022e62000421565b5b6200023d8782880162000190565b945050602085015167ffffffffffffffff81111562000261576200026062000421565b5b6200026f8782880162000190565b93505060406200028287828801620001c3565b92505060606200029587828801620001da565b91505092959194509250565b6000620002ad620002c0565b9050620002bb828262000383565b919050565b6000604051905090565b600067ffffffffffffffff821115620002e857620002e7620003e8565b5b620002f3826200042b565b9050602081019050919050565b6000819050919050565b600060ff82169050919050565b60005b83811015620003375780820151818401526020810190506200031a565b8381111562000347576000848401525b50505050565b600060028204905060018216806200036657607f821691505b602082108114156200037d576200037c620003b9565b5b50919050565b6200038e826200042b565b810181811067ffffffffffffffff82111715620003b057620003af620003e8565b5b80604052505050565b7f4e487b7100000000000000000000000000000000000000000000000000000000600052602260045260246000fd5b7f4e487b7100000000000000000000000000000000000000000000000000000000600052604160045260246000fd5b600080fd5b600080fd5b600080fd5b600080fd5b6000601f19601f8301169050919050565b620004478162000300565b81146200045357600080fd5b50565b62000461816200030a565b81146200046d57600080fd5b50565b610b9e80620004806000396000f3fe608060405234801561001057600080fd5b50600436106100935760003560e01c806342966c681161006657806342966c681461013457806370a0823114610150578063a0712d6814610180578063a9059cbb1461019c578063dd62ed3e146101cc57610093565b8063095ea7b31461009857806318160ddd146100c857806323b872dd146100e657806332424aa314610116575b600080fd5b6100b260048036038101906100ad919061093c565b6101fc565b6040516100bf91906109d6565b60405180910390f35b6100d06102ee565b6040516100dd91906109f1565b60405180910390f35b61010060048036038101906100fb91906108e9565b6102f8565b60405161010d91906109d6565b60405180910390f35b61011e6104a7565b60405161012b9190610a0c565b60405180910390f35b61014e6004803603810190610149919061097c565b6104ba565b005b61016a6004803603810190610165919061087c565b610591565b60405161017791906109f1565b60405180910390f35b61019a6004803603810190610195919061097c565b6105d9565b005b6101b660048036038101906101b1919061093c565b6106b0565b6040516101c391906109d6565b60405180910390f35b6101e660048036038101906101e191906108a9565b6107cb565b6040516101f391906109f1565b60405180910390f35b600081600160003373ffffffffffffffffffffffffffffffffffffffff1673ffffffffffffffffffffffffffffffffffffffff16815260200190815260200160002060008573ffffffffffffffffffffffffffffffffffffffff1673ffffffffffffffffffffffffffffffffffffffff168152602001908152602001600020819055508273ffffffffffffffffffffffffffffffffffffffff163373ffffffffffffffffffffffffffffffffffffffff167f8c5be1e5ebec7d5bd14f71427d1e84f3dd0314c0f7b2291e5b200ac8c7c3b925846040516102dc91906109f1565b60405180910390a36001905092915050565b6000600454905090565b600081600160008673ffffffffffffffffffffffffffffffffffffffff1673ffffffffffffffffffffffffffffffffffffffff16815260200190815260200160002060003373ffffffffffffffffffffffffffffffffffffffff1673ffffffffffffffffffffffffffffffffffffffff16815260200190815260200160002060008282546103869190610a7d565b92505081905550816000808673ffffffffffffffffffffffffffffffffffffffff1673ffffffffffffffffffffffffffffffffffffffff16815260200190815260200160002060008282546103db9190610a7d565b92505081905550816000808573ffffffffffffffffffffffffffffffffffffffff1673ffffffffffffffffffffffffffffffffffffffff16815260200190815260200160002060008282546104309190610a27565b925050819055508273ffffffffffffffffffffffffffffffffffffffff168473ffffffffffffffffffffffffffffffffffffffff167fddf252ad1be2c89b69c2b068fc378daa952ba7f163c4a11628f55a4df523b3ef8460405161049491906109f1565b60405180910390a3600190509392505050565b600560009054906101000a900460ff1681565b806000803373ffffffffffffffffffffffffffffffffffffffff1673ffffffffffffffffffffffffffffffffffffffff16815260200190815260200160002060008282546105089190610a7d565b9250508190555080600460008282546105219190610a7d565b92505081905550600073ffffffffffffffffffffffffffffffffffffffff163373ffffffffffffffffffffffffffffffffffffffff167fddf252ad1be2c89b69c2b068fc378daa952ba7f163c4a11628f55a4df523b3ef8360405161058691906109f1565b60405180910390a350565b60008060008373ffffffffffffffffffffffffffffffffffffffff1673ffffffffffffffffffffffffffffffffffffffff168152602001908152602001600020549050919050565b806000803373ffffffffffffffffffffffffffffffffffffffff1673ffffffffffffffffffffffffffffffffffffffff16815260200190815260200160002060008282546106279190610a27565b9250508190555080600460008282546106409190610a27565b925050819055503373ffffffffffffffffffffffffffffffffffffffff16600073ffffffffffffffffffffffffffffffffffffffff167fddf252ad1be2c89b69c2b068fc378daa952ba7f163c4a11628f55a4df523b3ef836040516106a591906109f1565b60405180910390a350565b6000816000803373ffffffffffffffffffffffffffffffffffffffff1673ffffffffffffffffffffffffffffffffffffffff16815260200190815260200160002060008282546107009190610a7d565b92505081905550816000808573ffffffffffffffffffffffffffffffffffffffff1673ffffffffffffffffffffffffffffffffffffffff16815260200190815260200160002060008282546107559190610a27565b925050819055508273ffffffffffffffffffffffffffffffffffffffff163373ffffffffffffffffffffffffffffffffffffffff167fddf252ad1be2c89b69c2b068fc378daa952ba7f163c4a11628f55a4df523b3ef846040516107b991906109f1565b60405180910390a36001905092915050565b6000600160008473ffffffffffffffffffffffffffffffffffffffff1673ffffffffffffffffffffffffffffffffffffffff16815260200190815260200160002060008373ffffffffffffffffffffffffffffffffffffffff1673ffffffffffffffffffffffffffffffffffffffff16815260200190815260200160002054905092915050565b60008135905061086181610b3a565b92915050565b60008135905061087681610b51565b92915050565b60006020828403121561089257610891610b35565b5b60006108a084828501610852565b91505092915050565b600080604083850312156108c0576108bf610b35565b5b60006108ce85828601610852565b92505060206108df85828601610852565b9150509250929050565b60008060006060848603121561090257610901610b35565b5b600061091086828701610852565b935050602061092186828701610852565b925050604061093286828701610867565b9150509250925092565b6000806040838503121561095357610952610b35565b5b600061096185828601610852565b925050602061097285828601610867565b9150509250929050565b60006020828403121561099257610991610b35565b5b60006109a084828501610867565b91505092915050565b6109b281610ac3565b82525050565b6109c181610aef565b82525050565b6109d081610af9565b82525050565b60006020820190506109eb60008301846109a9565b92915050565b6000602082019050610a0660008301846109b8565b92915050565b6000602082019050610a2160008301846109c7565b92915050565b6000610a3282610aef565b9150610a3d83610aef565b9250827fffffffffffffffffffffffffffffffffffffffffffffffffffffffffffffffff03821115610a7257610a71610b06565b5b828201905092915050565b6000610a8882610aef565b9150610a9383610aef565b925082821015610aa657610aa5610b06565b5b828203905092915050565b6000610abc82610acf565b9050919050565b60008115159050919050565b600073ffffffffffffffffffffffffffffffffffffffff82169050919050565b6000819050919050565b600060ff82169050919050565b7f4e487b7100000000000000000000000000000000000000000000000000000000600052601160045260246000fd5b600080fd5b610b4381610ab1565b8114610b4e57600080fd5b50565b610b5a81610aef565b8114610b6557600080fd5b5056fea26469706673582212207d3f0259778596cf6f798a539e11a55a76d7876deda3a16b1f6661a51be435ec64736f6c63430008070033",
					"opcodes": "PUSH1 0x80 PUSH1 0x40 MSTORE CALLVALUE DUP1 ISZERO PUSH3 0x11 JUMPI PUSH1 0x0 DUP1 REVERT JUMPDEST POP PUSH1 0x40 MLOAD PUSH3 0x101E CODESIZE SUB DUP1 PUSH3 0x101E DUP4 CODECOPY DUP2 DUP2 ADD PUSH1 0x40 MSTORE DUP2 ADD SWAP1 PUSH3 0x37 SWAP2 SWAP1 PUSH3 0x1F1 JUMP JUMPDEST DUP4 PUSH1 0x2 SWAP1 DUP1 MLOAD SWAP1 PUSH1 0x20 ADD SWAP1 PUSH3 0x4F SWAP3 SWAP2 SWAP1 PUSH3 0x95 JUMP JUMPDEST POP DUP3 PUSH1 0x3 SWAP1 DUP1 MLOAD SWAP1 PUSH1 0x20 ADD SWAP1 PUSH3 0x68 SWAP3 SWAP2 SWAP1 PUSH3 0x95 JUMP JUMPDEST POP DUP2 PUSH1 0x4 DUP2 SWAP1 SSTORE POP DUP1 PUSH1 0x5 PUSH1 0x0 PUSH2 0x100 EXP DUP2 SLOAD DUP2 PUSH1 0xFF MUL NOT AND SWAP1 DUP4 PUSH1 0xFF AND MUL OR SWAP1 SSTORE POP POP POP POP POP PUSH3 0x470 JUMP JUMPDEST DUP3 DUP1 SLOAD PUSH3 0xA3 SWAP1 PUSH3 0x34D JUMP JUMPDEST SWAP1 PUSH1 0x0 MSTORE PUSH1 0x20 PUSH1 0x0 KECCAK256 SWAP1 PUSH1 0x1F ADD PUSH1 0x20 SWAP1 DIV DUP2 ADD SWAP3 DUP3 PUSH3 0xC7 JUMPI PUSH1 0x0 DUP6 SSTORE PUSH3 0x113 JUMP JUMPDEST DUP3 PUSH1 0x1F LT PUSH3 0xE2 JUMPI DUP1 MLOAD PUSH1 0xFF NOT AND DUP4 DUP1 ADD OR DUP6 SSTORE PUSH3 0x113 JUMP JUMPDEST DUP3 DUP1 ADD PUSH1 0x1 ADD DUP6 SSTORE DUP3 ISZERO PUSH3 0x113 JUMPI SWAP2 DUP3 ADD JUMPDEST DUP3 DUP2 GT ISZERO PUSH3 0x112 JUMPI DUP3 MLOAD DUP3 SSTORE SWAP2 PUSH1 0x20 ADD SWAP2 SWAP1 PUSH1 0x1 ADD SWAP1 PUSH3 0xF5 JUMP JUMPDEST JUMPDEST POP SWAP1 POP PUSH3 0x122 SWAP2 SWAP1 PUSH3 0x126 JUMP JUMPDEST POP SWAP1 JUMP JUMPDEST JUMPDEST DUP1 DUP3 GT ISZERO PUSH3 0x141 JUMPI PUSH1 0x0 DUP2 PUSH1 0x0 SWAP1 SSTORE POP PUSH1 0x1 ADD PUSH3 0x127 JUMP JUMPDEST POP SWAP1 JUMP JUMPDEST PUSH1 0x0 PUSH3 0x15C PUSH3 0x156 DUP5 PUSH3 0x2CA JUMP JUMPDEST PUSH3 0x2A1 JUMP JUMPDEST SWAP1 POP DUP3 DUP2 MSTORE PUSH1 0x20 DUP2 ADD DUP5 DUP5 DUP5 ADD GT ISZERO PUSH3 0x17B JUMPI PUSH3 0x17A PUSH3 0x41C JUMP JUMPDEST JUMPDEST PUSH3 0x188 DUP5 DUP3 DUP6 PUSH3 0x317 JUMP JUMPDEST POP SWAP4 SWAP3 POP POP POP JUMP JUMPDEST PUSH1 0x0 DUP3 PUSH1 0x1F DUP4 ADD SLT PUSH3 0x1A8 JUMPI PUSH3 0x1A7 PUSH3 0x417 JUMP JUMPDEST JUMPDEST DUP2 MLOAD PUSH3 0x1BA DUP5 DUP3 PUSH1 0x20 DUP7 ADD PUSH3 0x145 JUMP JUMPDEST SWAP2 POP POP SWAP3 SWAP2 POP POP JUMP JUMPDEST PUSH1 0x0 DUP2 MLOAD SWAP1 POP PUSH3 0x1D4 DUP2 PUSH3 0x43C JUMP JUMPDEST SWAP3 SWAP2 POP POP JUMP JUMPDEST PUSH1 0x0 DUP2 MLOAD SWAP1 POP PUSH3 0x1EB DUP2 PUSH3 0x456 JUMP JUMPDEST SWAP3 SWAP2 POP POP JUMP JUMPDEST PUSH1 0x0 DUP1 PUSH1 0x0 DUP1 PUSH1 0x80 DUP6 DUP8 SUB SLT ISZERO PUSH3 0x20E JUMPI PUSH3 0x20D PUSH3 0x426 JUMP JUMPDEST JUMPDEST PUSH1 0x0 DUP6 ADD MLOAD PUSH8 0xFFFFFFFFFFFFFFFF DUP2 GT ISZERO PUSH3 0x22F JUMPI PUSH3 0x22E PUSH3 0x421 JUMP JUMPDEST JUMPDEST PUSH3 0x23D DUP8 DUP3 DUP9 ADD PUSH3 0x190 JUMP JUMPDEST SWAP5 POP POP PUSH1 0x20 DUP6 ADD MLOAD PUSH8 0xFFFFFFFFFFFFFFFF DUP2 GT ISZERO PUSH3 0x261 JUMPI PUSH3 0x260 PUSH3 0x421 JUMP JUMPDEST JUMPDEST PUSH3 0x26F DUP8 DUP3 DUP9 ADD PUSH3 0x190 JUMP JUMPDEST SWAP4 POP POP PUSH1 0x40 PUSH3 0x282 DUP8 DUP3 DUP9 ADD PUSH3 0x1C3 JUMP JUMPDEST SWAP3 POP POP PUSH1 0x60 PUSH3 0x295 DUP8 DUP3 DUP9 ADD PUSH3 0x1DA JUMP JUMPDEST SWAP2 POP POP SWAP3 SWAP6 SWAP2 SWAP5 POP SWAP3 POP JUMP JUMPDEST PUSH1 0x0 PUSH3 0x2AD PUSH3 0x2C0 JUMP JUMPDEST SWAP1 POP PUSH3 0x2BB DUP3 DUP3 PUSH3 0x383 JUMP JUMPDEST SWAP2 SWAP1 POP JUMP JUMPDEST PUSH1 0x0 PUSH1 0x40 MLOAD SWAP1 POP SWAP1 JUMP JUMPDEST PUSH1 0x0 PUSH8 0xFFFFFFFFFFFFFFFF DUP3 GT ISZERO PUSH3 0x2E8 JUMPI PUSH3 0x2E7 PUSH3 0x3E8 JUMP JUMPDEST JUMPDEST PUSH3 0x2F3 DUP3 PUSH3 0x42B JUMP JUMPDEST SWAP1 POP PUSH1 0x20 DUP2 ADD SWAP1 POP SWAP2 SWAP1 POP JUMP JUMPDEST PUSH1 0x0 DUP2 SWAP1 POP SWAP2 SWAP1 POP JUMP JUMPDEST PUSH1 0x0 PUSH1 0xFF DUP3 AND SWAP1 POP SWAP2 SWAP1 POP JUMP JUMPDEST PUSH1 0x0 JUMPDEST DUP4 DUP2 LT ISZERO PUSH3 0x337 JUMPI DUP1 DUP3 ADD MLOAD DUP2 DUP5 ADD MSTORE PUSH1 0x20 DUP2 ADD SWAP1 POP PUSH3 0x31A JUMP JUMPDEST DUP4 DUP2 GT ISZERO PUSH3 0x347 JUMPI PUSH1 0x0 DUP5 DUP5 ADD MSTORE JUMPDEST POP POP POP POP JUMP JUMPDEST PUSH1 0x0 PUSH1 0x2 DUP3 DIV SWAP1 POP PUSH1 0x1 DUP3 AND DUP1 PUSH3 0x366 JUMPI PUSH1 0x7F DUP3 AND SWAP2 POP JUMPDEST PUSH1 0x20 DUP3 LT DUP2 EQ ISZERO PUSH3 0x37D JUMPI PUSH3 0x37C PUSH3 0x3B9 JUMP JUMPDEST JUMPDEST POP SWAP2 SWAP1 POP JUMP JUMPDEST PUSH3 0x38E DUP3 PUSH3 0x42B JUMP JUMPDEST DUP2 ADD DUP2 DUP2 LT PUSH8 0xFFFFFFFFFFFFFFFF DUP3 GT OR ISZERO PUSH3 0x3B0 JUMPI PUSH3 0x3AF PUSH3 0x3E8 JUMP JUMPDEST JUMPDEST DUP1 PUSH1 0x40 MSTORE POP POP POP JUMP JUMPDEST PUSH32 0x4E487B7100000000000000000000000000000000000000000000000000000000 PUSH1 0x0 MSTORE PUSH1 0x22 PUSH1 0x4 MSTORE PUSH1 0x24 PUSH1 0x0 REVERT JUMPDEST PUSH32 0x4E487B7100000000000000000000000000000000000000000000000000000000 PUSH1 0x0 MSTORE PUSH1 0x41 PUSH1 0x4 MSTORE PUSH1 0x24 PUSH1 0x0 REVERT JUMPDEST PUSH1 0x0 DUP1 REVERT JUMPDEST PUSH1 0x0 DUP1 REVERT JUMPDEST PUSH1 0x0 DUP1 REVERT JUMPDEST PUSH1 0x0 DUP1 REVERT JUMPDEST PUSH1 0x0 PUSH1 0x1F NOT PUSH1 0x1F DUP4 ADD AND SWAP1 POP SWAP2 SWAP1 POP JUMP JUMPDEST PUSH3 0x447 DUP2 PUSH3 0x300 JUMP JUMPDEST DUP2 EQ PUSH3 0x453 JUMPI PUSH1 0x0 DUP1 REVERT JUMPDEST POP JUMP JUMPDEST PUSH3 0x461 DUP2 PUSH3 0x30A JUMP JUMPDEST DUP2 EQ PUSH3 0x46D JUMPI PUSH1 0x0 DUP1 REVERT JUMPDEST POP JUMP JUMPDEST PUSH2 0xB9E DUP1 PUSH3 0x480 PUSH1 0x0 CODECOPY PUSH1 0x0 RETURN INVALID PUSH1 0x80 PUSH1 0x40 MSTORE CALLVALUE DUP1 ISZERO PUSH2 0x10 JUMPI PUSH1 0x0 DUP1 REVERT JUMPDEST POP PUSH1 0x4 CALLDATASIZE LT PUSH2 0x93 JUMPI PUSH1 0x0 CALLDATALOAD PUSH1 0xE0 SHR DUP1 PUSH4 0x42966C68 GT PUSH2 0x66 JUMPI DUP1 PUSH4 0x42966C68 EQ PUSH2 0x134 JUMPI DUP1 PUSH4 0x70A08231 EQ PUSH2 0x150 JUMPI DUP1 PUSH4 0xA0712D68 EQ PUSH2 0x180 JUMPI DUP1 PUSH4 0xA9059CBB EQ PUSH2 0x19C JUMPI DUP1 PUSH4 0xDD62ED3E EQ PUSH2 0x1CC JUMPI PUSH2 0x93 JUMP JUMPDEST DUP1 PUSH4 0x95EA7B3 EQ PUSH2 0x98 JUMPI DUP1 PUSH4 0x18160DDD EQ PUSH2 0xC8 JUMPI DUP1 PUSH4 0x23B872DD EQ PUSH2 0xE6 JUMPI DUP1 PUSH4 0x32424AA3 EQ PUSH2 0x116 JUMPI JUMPDEST PUSH1 0x0 DUP1 REVERT JUMPDEST PUSH2 0xB2 PUSH1 0x4 DUP1 CALLDATASIZE SUB DUP2 ADD SWAP1 PUSH2 0xAD SWAP2 SWAP1 PUSH2 0x93C JUMP JUMPDEST PUSH2 0x1FC JUMP JUMPDEST PUSH1 0x40 MLOAD PUSH2 0xBF SWAP2 SWAP1 PUSH2 0x9D6 JUMP JUMPDEST PUSH1 0x40 MLOAD DUP1 SWAP2 SUB SWAP1 RETURN JUMPDEST PUSH2 0xD0 PUSH2 0x2EE JUMP JUMPDEST PUSH1 0x40 MLOAD PUSH2 0xDD SWAP2 SWAP1 PUSH2 0x9F1 JUMP JUMPDEST PUSH1 0x40 MLOAD DUP1 SWAP2 SUB SWAP1 RETURN JUMPDEST PUSH2 0x100 PUSH1 0x4 DUP1 CALLDATASIZE SUB DUP2 ADD SWAP1 PUSH2 0xFB SWAP2 SWAP1 PUSH2 0x8E9 JUMP JUMPDEST PUSH2 0x2F8 JUMP JUMPDEST PUSH1 0x40 MLOAD PUSH2 0x10D SWAP2 SWAP1 PUSH2 0x9D6 JUMP JUMPDEST PUSH1 0x40 MLOAD DUP1 SWAP2 SUB SWAP1 RETURN JUMPDEST PUSH2 0x11E PUSH2 0x4A7 JUMP JUMPDEST PUSH1 0x40 MLOAD PUSH2 0x12B SWAP2 SWAP1 PUSH2 0xA0C JUMP JUMPDEST PUSH1 0x40 MLOAD DUP1 SWAP2 SUB SWAP1 RETURN JUMPDEST PUSH2 0x14E PUSH1 0x4 DUP1 CALLDATASIZE SUB DUP2 ADD SWAP1 PUSH2 0x149 SWAP2 SWAP1 PUSH2 0x97C JUMP JUMPDEST PUSH2 0x4BA JUMP JUMPDEST STOP JUMPDEST PUSH2 0x16A PUSH1 0x4 DUP1 CALLDATASIZE SUB DUP2 ADD SWAP1 PUSH2 0x165 SWAP2 SWAP1 PUSH2 0x87C JUMP JUMPDEST PUSH2 0x591 JUMP JUMPDEST PUSH1 0x40 MLOAD PUSH2 0x177 SWAP2 SWAP1 PUSH2 0x9F1 JUMP JUMPDEST PUSH1 0x40 MLOAD DUP1 SWAP2 SUB SWAP1 RETURN JUMPDEST PUSH2 0x19A PUSH1 0x4 DUP1 CALLDATASIZE SUB DUP2 ADD SWAP1 PUSH2 0x195 SWAP2 SWAP1 PUSH2 0x97C JUMP JUMPDEST PUSH2 0x5D9 JUMP JUMPDEST STOP JUMPDEST PUSH2 0x1B6 PUSH1 0x4 DUP1 CALLDATASIZE SUB DUP2 ADD SWAP1 PUSH2 0x1B1 SWAP2 SWAP1 PUSH2 0x93C JUMP JUMPDEST PUSH2 0x6B0 JUMP JUMPDEST PUSH1 0x40 MLOAD PUSH2 0x1C3 SWAP2 SWAP1 PUSH2 0x9D6 JUMP JUMPDEST PUSH1 0x40 MLOAD DUP1 SWAP2 SUB SWAP1 RETURN JUMPDEST PUSH2 0x1E6 PUSH1 0x4 DUP1 CALLDATASIZE SUB DUP2 ADD SWAP1 PUSH2 0x1E1 SWAP2 SWAP1 PUSH2 0x8A9 JUMP JUMPDEST PUSH2 0x7CB JUMP JUMPDEST PUSH1 0x40 MLOAD PUSH2 0x1F3 SWAP2 SWAP1 PUSH2 0x9F1 JUMP JUMPDEST PUSH1 0x40 MLOAD DUP1 SWAP2 SUB SWAP1 RETURN JUMPDEST PUSH1 0x0 DUP2 PUSH1 0x1 PUSH1 0x0 CALLER PUSH20 0xFFFFFFFFFFFFFFFFFFFFFFFFFFFFFFFFFFFFFFFF AND PUSH20 0xFFFFFFFFFFFFFFFFFFFFFFFFFFFFFFFFFFFFFFFF AND DUP2 MSTORE PUSH1 0x20 ADD SWAP1 DUP2 MSTORE PUSH1 0x20 ADD PUSH1 0x0 KECCAK256 PUSH1 0x0 DUP6 PUSH20 0xFFFFFFFFFFFFFFFFFFFFFFFFFFFFFFFFFFFFFFFF AND PUSH20 0xFFFFFFFFFFFFFFFFFFFFFFFFFFFFFFFFFFFFFFFF AND DUP2 MSTORE PUSH1 0x20 ADD SWAP1 DUP2 MSTORE PUSH1 0x20 ADD PUSH1 0x0 KECCAK256 DUP2 SWAP1 SSTORE POP DUP3 PUSH20 0xFFFFFFFFFFFFFFFFFFFFFFFFFFFFFFFFFFFFFFFF AND CALLER PUSH20 0xFFFFFFFFFFFFFFFFFFFFFFFFFFFFFFFFFFFFFFFF AND PUSH32 0x8C5BE1E5EBEC7D5BD14F71427D1E84F3DD0314C0F7B2291E5B200AC8C7C3B925 DUP5 PUSH1 0x40 MLOAD PUSH2 0x2DC SWAP2 SWAP1 PUSH2 0x9F1 JUMP JUMPDEST PUSH1 0x40 MLOAD DUP1 SWAP2 SUB SWAP1 LOG3 PUSH1 0x1 SWAP1 POP SWAP3 SWAP2 POP POP JUMP JUMPDEST PUSH1 0x0 PUSH1 0x4 SLOAD SWAP1 POP SWAP1 JUMP JUMPDEST PUSH1 0x0 DUP2 PUSH1 0x1 PUSH1 0x0 DUP7 PUSH20 0xFFFFFFFFFFFFFFFFFFFFFFFFFFFFFFFFFFFFFFFF AND PUSH20 0xFFFFFFFFFFFFFFFFFFFFFFFFFFFFFFFFFFFFFFFF AND DUP2 MSTORE PUSH1 0x20 ADD SWAP1 DUP2 MSTORE PUSH1 0x20 ADD PUSH1 0x0 KECCAK256 PUSH1 0x0 CALLER PUSH20 0xFFFFFFFFFFFFFFFFFFFFFFFFFFFFFFFFFFFFFFFF AND PUSH20 0xFFFFFFFFFFFFFFFFFFFFFFFFFFFFFFFFFFFFFFFF AND DUP2 MSTORE PUSH1 0x20 ADD SWAP1 DUP2 MSTORE PUSH1 0x20 ADD PUSH1 0x0 KECCAK256 PUSH1 0x0 DUP3 DUP3 SLOAD PUSH2 0x386 SWAP2 SWAP1 PUSH2 0xA7D JUMP JUMPDEST SWAP3 POP POP DUP2 SWAP1 SSTORE POP DUP2 PUSH1 0x0 DUP1 DUP7 PUSH20 0xFFFFFFFFFFFFFFFFFFFFFFFFFFFFFFFFFFFFFFFF AND PUSH20 0xFFFFFFFFFFFFFFFFFFFFFFFFFFFFFFFFFFFFFFFF AND DUP2 MSTORE PUSH1 0x20 ADD SWAP1 DUP2 MSTORE PUSH1 0x20 ADD PUSH1 0x0 KECCAK256 PUSH1 0x0 DUP3 DUP3 SLOAD PUSH2 0x3DB SWAP2 SWAP1 PUSH2 0xA7D JUMP JUMPDEST SWAP3 POP POP DUP2 SWAP1 SSTORE POP DUP2 PUSH1 0x0 DUP1 DUP6 PUSH20 0xFFFFFFFFFFFFFFFFFFFFFFFFFFFFFFFFFFFFFFFF AND PUSH20 0xFFFFFFFFFFFFFFFFFFFFFFFFFFFFFFFFFFFFFFFF AND DUP2 MSTORE PUSH1 0x20 ADD SWAP1 DUP2 MSTORE PUSH1 0x20 ADD PUSH1 0x0 KECCAK256 PUSH1 0x0 DUP3 DUP3 SLOAD PUSH2 0x430 SWAP2 SWAP1 PUSH2 0xA27 JUMP JUMPDEST SWAP3 POP POP DUP2 SWAP1 SSTORE POP DUP3 PUSH20 0xFFFFFFFFFFFFFFFFFFFFFFFFFFFFFFFFFFFFFFFF AND DUP5 PUSH20 0xFFFFFFFFFFFFFFFFFFFFFFFFFFFFFFFFFFFFFFFF AND PUSH32 0xDDF252AD1BE2C89B69C2B068FC378DAA952BA7F163C4A11628F55A4DF523B3EF DUP5 PUSH1 0x40 MLOAD PUSH2 0x494 SWAP2 SWAP1 PUSH2 0x9F1 JUMP JUMPDEST PUSH1 0x40 MLOAD DUP1 SWAP2 SUB SWAP1 LOG3 PUSH1 0x1 SWAP1 POP SWAP4 SWAP3 POP POP POP JUMP JUMPDEST PUSH1 0x5 PUSH1 0x0 SWAP1 SLOAD SWAP1 PUSH2 0x100 EXP SWAP1 DIV PUSH1 0xFF AND DUP2 JUMP JUMPDEST DUP1 PUSH1 0x0 DUP1 CALLER PUSH20 0xFFFFFFFFFFFFFFFFFFFFFFFFFFFFFFFFFFFFFFFF AND PUSH20 0xFFFFFFFFFFFFFFFFFFFFFFFFFFFFFFFFFFFFFFFF AND DUP2 MSTORE PUSH1 0x20 ADD SWAP1 DUP2 MSTORE PUSH1 0x20 ADD PUSH1 0x0 KECCAK256 PUSH1 0x0 DUP3 DUP3 SLOAD PUSH2 0x508 SWAP2 SWAP1 PUSH2 0xA7D JUMP JUMPDEST SWAP3 POP POP DUP2 SWAP1 SSTORE POP DUP1 PUSH1 0x4 PUSH1 0x0 DUP3 DUP3 SLOAD PUSH2 0x521 SWAP2 SWAP1 PUSH2 0xA7D JUMP JUMPDEST SWAP3 POP POP DUP2 SWAP1 SSTORE POP PUSH1 0x0 PUSH20 0xFFFFFFFFFFFFFFFFFFFFFFFFFFFFFFFFFFFFFFFF AND CALLER PUSH20 0xFFFFFFFFFFFFFFFFFFFFFFFFFFFFFFFFFFFFFFFF AND PUSH32 0xDDF252AD1BE2C89B69C2B068FC378DAA952BA7F163C4A11628F55A4DF523B3EF DUP4 PUSH1 0x40 MLOAD PUSH2 0x586 SWAP2 SWAP1 PUSH2 0x9F1 JUMP JUMPDEST PUSH1 0x40 MLOAD DUP1 SWAP2 SUB SWAP1 LOG3 POP JUMP JUMPDEST PUSH1 0x0 DUP1 PUSH1 0x0 DUP4 PUSH20 0xFFFFFFFFFFFFFFFFFFFFFFFFFFFFFFFFFFFFFFFF AND PUSH20 0xFFFFFFFFFFFFFFFFFFFFFFFFFFFFFFFFFFFFFFFF AND DUP2 MSTORE PUSH1 0x20 ADD SWAP1 DUP2 MSTORE PUSH1 0x20 ADD PUSH1 0x0 KECCAK256 SLOAD SWAP1 POP SWAP2 SWAP1 POP JUMP JUMPDEST DUP1 PUSH1 0x0 DUP1 CALLER PUSH20 0xFFFFFFFFFFFFFFFFFFFFFFFFFFFFFFFFFFFFFFFF AND PUSH20 0xFFFFFFFFFFFFFFFFFFFFFFFFFFFFFFFFFFFFFFFF AND DUP2 MSTORE PUSH1 0x20 ADD SWAP1 DUP2 MSTORE PUSH1 0x20 ADD PUSH1 0x0 KECCAK256 PUSH1 0x0 DUP3 DUP3 SLOAD PUSH2 0x627 SWAP2 SWAP1 PUSH2 0xA27 JUMP JUMPDEST SWAP3 POP POP DUP2 SWAP1 SSTORE POP DUP1 PUSH1 0x4 PUSH1 0x0 DUP3 DUP3 SLOAD PUSH2 0x640 SWAP2 SWAP1 PUSH2 0xA27 JUMP JUMPDEST SWAP3 POP POP DUP2 SWAP1 SSTORE POP CALLER PUSH20 0xFFFFFFFFFFFFFFFFFFFFFFFFFFFFFFFFFFFFFFFF AND PUSH1 0x0 PUSH20 0xFFFFFFFFFFFFFFFFFFFFFFFFFFFFFFFFFFFFFFFF AND PUSH32 0xDDF252AD1BE2C89B69C2B068FC378DAA952BA7F163C4A11628F55A4DF523B3EF DUP4 PUSH1 0x40 MLOAD PUSH2 0x6A5 SWAP2 SWAP1 PUSH2 0x9F1 JUMP JUMPDEST PUSH1 0x40 MLOAD DUP1 SWAP2 SUB SWAP1 LOG3 POP JUMP JUMPDEST PUSH1 0x0 DUP2 PUSH1 0x0 DUP1 CALLER PUSH20 0xFFFFFFFFFFFFFFFFFFFFFFFFFFFFFFFFFFFFFFFF AND PUSH20 0xFFFFFFFFFFFFFFFFFFFFFFFFFFFFFFFFFFFFFFFF AND DUP2 MSTORE PUSH1 0x20 ADD SWAP1 DUP2 MSTORE PUSH1 0x20 ADD PUSH1 0x0 KECCAK256 PUSH1 0x0 DUP3 DUP3 SLOAD PUSH2 0x700 SWAP2 SWAP1 PUSH2 0xA7D JUMP JUMPDEST SWAP3 POP POP DUP2 SWAP1 SSTORE POP DUP2 PUSH1 0x0 DUP1 DUP6 PUSH20 0xFFFFFFFFFFFFFFFFFFFFFFFFFFFFFFFFFFFFFFFF AND PUSH20 0xFFFFFFFFFFFFFFFFFFFFFFFFFFFFFFFFFFFFFFFF AND DUP2 MSTORE PUSH1 0x20 ADD SWAP1 DUP2 MSTORE PUSH1 0x20 ADD PUSH1 0x0 KECCAK256 PUSH1 0x0 DUP3 DUP3 SLOAD PUSH2 0x755 SWAP2 SWAP1 PUSH2 0xA27 JUMP JUMPDEST SWAP3 POP POP DUP2 SWAP1 SSTORE POP DUP3 PUSH20 0xFFFFFFFFFFFFFFFFFFFFFFFFFFFFFFFFFFFFFFFF AND CALLER PUSH20 0xFFFFFFFFFFFFFFFFFFFFFFFFFFFFFFFFFFFFFFFF AND PUSH32 0xDDF252AD1BE2C89B69C2B068FC378DAA952BA7F163C4A11628F55A4DF523B3EF DUP5 PUSH1 0x40 MLOAD PUSH2 0x7B9 SWAP2 SWAP1 PUSH2 0x9F1 JUMP JUMPDEST PUSH1 0x40 MLOAD DUP1 SWAP2 SUB SWAP1 LOG3 PUSH1 0x1 SWAP1 POP SWAP3 SWAP2 POP POP JUMP JUMPDEST PUSH1 0x0 PUSH1 0x1 PUSH1 0x0 DUP5 PUSH20 0xFFFFFFFFFFFFFFFFFFFFFFFFFFFFFFFFFFFFFFFF AND PUSH20 0xFFFFFFFFFFFFFFFFFFFFFFFFFFFFFFFFFFFFFFFF AND DUP2 MSTORE PUSH1 0x20 ADD SWAP1 DUP2 MSTORE PUSH1 0x20 ADD PUSH1 0x0 KECCAK256 PUSH1 0x0 DUP4 PUSH20 0xFFFFFFFFFFFFFFFFFFFFFFFFFFFFFFFFFFFFFFFF AND PUSH20 0xFFFFFFFFFFFFFFFFFFFFFFFFFFFFFFFFFFFFFFFF AND DUP2 MSTORE PUSH1 0x20 ADD SWAP1 DUP2 MSTORE PUSH1 0x20 ADD PUSH1 0x0 KECCAK256 SLOAD SWAP1 POP SWAP3 SWAP2 POP POP JUMP JUMPDEST PUSH1 0x0 DUP2 CALLDATALOAD SWAP1 POP PUSH2 0x861 DUP2 PUSH2 0xB3A JUMP JUMPDEST SWAP3 SWAP2 POP POP JUMP JUMPDEST PUSH1 0x0 DUP2 CALLDATALOAD SWAP1 POP PUSH2 0x876 DUP2 PUSH2 0xB51 JUMP JUMPDEST SWAP3 SWAP2 POP POP JUMP JUMPDEST PUSH1 0x0 PUSH1 0x20 DUP3 DUP5 SUB SLT ISZERO PUSH2 0x892 JUMPI PUSH2 0x891 PUSH2 0xB35 JUMP JUMPDEST JUMPDEST PUSH1 0x0 PUSH2 0x8A0 DUP5 DUP3 DUP6 ADD PUSH2 0x852 JUMP JUMPDEST SWAP2 POP POP SWAP3 SWAP2 POP POP JUMP JUMPDEST PUSH1 0x0 DUP1 PUSH1 0x40 DUP4 DUP6 SUB SLT ISZERO PUSH2 0x8C0 JUMPI PUSH2 0x8BF PUSH2 0xB35 JUMP JUMPDEST JUMPDEST PUSH1 0x0 PUSH2 0x8CE DUP6 DUP3 DUP7 ADD PUSH2 0x852 JUMP JUMPDEST SWAP3 POP POP PUSH1 0x20 PUSH2 0x8DF DUP6 DUP3 DUP7 ADD PUSH2 0x852 JUMP JUMPDEST SWAP2 POP POP SWAP3 POP SWAP3 SWAP1 POP JUMP JUMPDEST PUSH1 0x0 DUP1 PUSH1 0x0 PUSH1 0x60 DUP5 DUP7 SUB SLT ISZERO PUSH2 0x902 JUMPI PUSH2 0x901 PUSH2 0xB35 JUMP JUMPDEST JUMPDEST PUSH1 0x0 PUSH2 0x910 DUP7 DUP3 DUP8 ADD PUSH2 0x852 JUMP JUMPDEST SWAP4 POP POP PUSH1 0x20 PUSH2 0x921 DUP7 DUP3 DUP8 ADD PUSH2 0x852 JUMP JUMPDEST SWAP3 POP POP PUSH1 0x40 PUSH2 0x932 DUP7 DUP3 DUP8 ADD PUSH2 0x867 JUMP JUMPDEST SWAP2 POP POP SWAP3 POP SWAP3 POP SWAP3 JUMP JUMPDEST PUSH1 0x0 DUP1 PUSH1 0x40 DUP4 DUP6 SUB SLT ISZERO PUSH2 0x953 JUMPI PUSH2 0x952 PUSH2 0xB35 JUMP JUMPDEST JUMPDEST PUSH1 0x0 PUSH2 0x961 DUP6 DUP3 DUP7 ADD PUSH2 0x852 JUMP JUMPDEST SWAP3 POP POP PUSH1 0x20 PUSH2 0x972 DUP6 DUP3 DUP7 ADD PUSH2 0x867 JUMP JUMPDEST SWAP2 POP POP SWAP3 POP SWAP3 SWAP1 POP JUMP JUMPDEST PUSH1 0x0 PUSH1 0x20 DUP3 DUP5 SUB SLT ISZERO PUSH2 0x992 JUMPI PUSH2 0x991 PUSH2 0xB35 JUMP JUMPDEST JUMPDEST PUSH1 0x0 PUSH2 0x9A0 DUP5 DUP3 DUP6 ADD PUSH2 0x867 JUMP JUMPDEST SWAP2 POP POP SWAP3 SWAP2 POP POP JUMP JUMPDEST PUSH2 0x9B2 DUP2 PUSH2 0xAC3 JUMP JUMPDEST DUP3 MSTORE POP POP JUMP JUMPDEST PUSH2 0x9C1 DUP2 PUSH2 0xAEF JUMP JUMPDEST DUP3 MSTORE POP POP JUMP JUMPDEST PUSH2 0x9D0 DUP2 PUSH2 0xAF9 JUMP JUMPDEST DUP3 MSTORE POP POP JUMP JUMPDEST PUSH1 0x0 PUSH1 0x20 DUP3 ADD SWAP1 POP PUSH2 0x9EB PUSH1 0x0 DUP4 ADD DUP5 PUSH2 0x9A9 JUMP JUMPDEST SWAP3 SWAP2 POP POP JUMP JUMPDEST PUSH1 0x0 PUSH1 0x20 DUP3 ADD SWAP1 POP PUSH2 0xA06 PUSH1 0x0 DUP4 ADD DUP5 PUSH2 0x9B8 JUMP JUMPDEST SWAP3 SWAP2 POP POP JUMP JUMPDEST PUSH1 0x0 PUSH1 0x20 DUP3 ADD SWAP1 POP PUSH2 0xA21 PUSH1 0x0 DUP4 ADD DUP5 PUSH2 0x9C7 JUMP JUMPDEST SWAP3 SWAP2 POP POP JUMP JUMPDEST PUSH1 0x0 PUSH2 0xA32 DUP3 PUSH2 0xAEF JUMP JUMPDEST SWAP2 POP PUSH2 0xA3D DUP4 PUSH2 0xAEF JUMP JUMPDEST SWAP3 POP DUP3 PUSH32 0xFFFFFFFFFFFFFFFFFFFFFFFFFFFFFFFFFFFFFFFFFFFFFFFFFFFFFFFFFFFFFFFF SUB DUP3 GT ISZERO PUSH2 0xA72 JUMPI PUSH2 0xA71 PUSH2 0xB06 JUMP JUMPDEST JUMPDEST DUP3 DUP3 ADD SWAP1 POP SWAP3 SWAP2 POP POP JUMP JUMPDEST PUSH1 0x0 PUSH2 0xA88 DUP3 PUSH2 0xAEF JUMP JUMPDEST SWAP2 POP PUSH2 0xA93 DUP4 PUSH2 0xAEF JUMP JUMPDEST SWAP3 POP DUP3 DUP3 LT ISZERO PUSH2 0xAA6 JUMPI PUSH2 0xAA5 PUSH2 0xB06 JUMP JUMPDEST JUMPDEST DUP3 DUP3 SUB SWAP1 POP SWAP3 SWAP2 POP POP JUMP JUMPDEST PUSH1 0x0 PUSH2 0xABC DUP3 PUSH2 0xACF JUMP JUMPDEST SWAP1 POP SWAP2 SWAP1 POP JUMP JUMPDEST PUSH1 0x0 DUP2 ISZERO ISZERO SWAP1 POP SWAP2 SWAP1 POP JUMP JUMPDEST PUSH1 0x0 PUSH20 0xFFFFFFFFFFFFFFFFFFFFFFFFFFFFFFFFFFFFFFFF DUP3 AND SWAP1 POP SWAP2 SWAP1 POP JUMP JUMPDEST PUSH1 0x0 DUP2 SWAP1 POP SWAP2 SWAP1 POP JUMP JUMPDEST PUSH1 0x0 PUSH1 0xFF DUP3 AND SWAP1 POP SWAP2 SWAP1 POP JUMP JUMPDEST PUSH32 0x4E487B7100000000000000000000000000000000000000000000000000000000 PUSH1 0x0 MSTORE PUSH1 0x11 PUSH1 0x4 MSTORE PUSH1 0x24 PUSH1 0x0 REVERT JUMPDEST PUSH1 0x0 DUP1 REVERT JUMPDEST PUSH2 0xB43 DUP2 PUSH2 0xAB1 JUMP JUMPDEST DUP2 EQ PUSH2 0xB4E JUMPI PUSH1 0x0 DUP1 REVERT JUMPDEST POP JUMP JUMPDEST PUSH2 0xB5A DUP2 PUSH2 0xAEF JUMP JUMPDEST DUP2 EQ PUSH2 0xB65 JUMPI PUSH1 0x0 DUP1 REVERT JUMPDEST POP JUMP INVALID LOG2 PUSH5 0x6970667358 0x22 SLT KECCAK256 PUSH30 0x3F0259778596CF6F798A539E11A55A76D7876DEDA3A16B1F6661A51BE435 0xEC PUSH5 0x736F6C6343 STOP ADDMOD SMOD STOP CALLER "
				},
				"gasEstimates": {
					"creation": {
						"codeDepositCost": "594800",
						"executionCost": "infinite",
						"totalCost": "infinite"
					},
					"external": {
						"_decimals()": "2538",
						"allowance(address,address)": "infinite",
						"approve(address,uint256)": "infinite",
						"balanceOf(address)": "2863",
						"burn(uint256)": "infinite",
						"mint(uint256)": "infinite",
						"totalSupply()": "2460",
						"transfer(address,uint256)": "infinite",
						"transferFrom(address,address,uint256)": "infinite"
					}
				},
				"methodIdentifiers": {
					"_decimals()": "32424aa3",
					"allowance(address,address)": "dd62ed3e",
					"approve(address,uint256)": "095ea7b3",
					"balanceOf(address)": "70a08231",
					"burn(uint256)": "42966c68",
					"mint(uint256)": "a0712d68",
					"totalSupply()": "18160ddd",
					"transfer(address,uint256)": "a9059cbb",
					"transferFrom(address,address,uint256)": "23b872dd"
				}
			},
			"storageLayout": {
				"storage": [
					{
						"astId": 8,
						"contract": "contracts/ERC20.sol:ERC20",
						"label": "_balances",
						"offset": 0,
						"slot": "0",
						"type": "t_mapping(t_address,t_uint256)"
					},
					{
						"astId": 14,
						"contract": "contracts/ERC20.sol:ERC20",
						"label": "_allowance",
						"offset": 0,
						"slot": "1",
						"type": "t_mapping(t_address,t_mapping(t_address,t_uint256))"
					},
					{
						"astId": 16,
						"contract": "contracts/ERC20.sol:ERC20",
						"label": "_name",
						"offset": 0,
						"slot": "2",
						"type": "t_string_storage"
					},
					{
						"astId": 18,
						"contract": "contracts/ERC20.sol:ERC20",
						"label": "_symbol",
						"offset": 0,
						"slot": "3",
						"type": "t_string_storage"
					},
					{
						"astId": 20,
						"contract": "contracts/ERC20.sol:ERC20",
						"label": "_totalSupply",
						"offset": 0,
						"slot": "4",
						"type": "t_uint256"
					},
					{
						"astId": 22,
						"contract": "contracts/ERC20.sol:ERC20",
						"label": "_decimals",
						"offset": 0,
						"slot": "5",
						"type": "t_uint8"
					}
				],
				"types": {
					"t_address": {
						"encoding": "inplace",
						"label": "address",
						"numberOfBytes": "20"
					},
					"t_mapping(t_address,t_mapping(t_address,t_uint256))": {
						"encoding": "mapping",
						"key": "t_address",
						"label": "mapping(address => mapping(address => uint256))",
						"numberOfBytes": "32",
						"value": "t_mapping(t_address,t_uint256)"
					},
					"t_mapping(t_address,t_uint256)": {
						"encoding": "mapping",
						"key": "t_address",
						"label": "mapping(address => uint256)",
						"numberOfBytes": "32",
						"value": "t_uint256"
					},
					"t_string_storage": {
						"encoding": "bytes",
						"label": "string",
						"numberOfBytes": "32"
					},
					"t_uint256": {
						"encoding": "inplace",
						"label": "uint256",
						"numberOfBytes": "32"
					},
					"t_uint8": {
						"encoding": "inplace",
						"label": "uint8",
						"numberOfBytes": "1"
					}
				}
			},
			"userdoc": {
				"kind": "user",
				"methods": {},
				"version": 1
			}
		}
	}
}